:020000040800F2
:1000000080F20020712F0008F1010008F3010008C0
:10001000F7010008FB010008FF01000800000000D4
:1000200000000000000000000000000003020008C3
:1000300005020008000000005F51000807020008E8
:100040004302000845020008470200084902000870
:100050004B0200084D0200084F0200085102000840
:100060005302000855020008570200085902000810
:100070005B0200085D0200085F02000861020008E0
:100080006302000865020008670200088B2F000861
:100090008B2F00086D0200086F0200087102000833
:1000A0007302000875020008770200087902000850
:1000B0007B0200087D0200087F0200088102000820
:1000C00083020008850200088702000889020008F0
:1000D0008B0200088D0200088F02000891020008C0
:1000E00093020008950200088B2F00080000000012
:1000F0000000000000000000000000000000000000
:1001000000000000000000008B2F00088B2F00086B
:100110008B2F00088B2F00088B2F00088B2F0008D7
:100120008B2F00088B2F00088B2F00088B2F0008C7
:100130008B2F0008230200088B2F00088B2F00084C
:100140008B2F00088B2F00088B2F00088B2F0008A7
:10015000DFF80CD010F08AF8004800479101000841
:1001600080F2002010B5044600F0E6F900F00EFA27
:1001700013A010F0D7F800F0DBFA00F058FA00F006
:1001800008FC002000F000FDFF2004F020FC10BD62
:1001900000B585B003F043F8032000218022114B05
:1001A000CDE90310CDE90132009003460E4A0F4815
:1001B00004F0B3FB03F040F9002005B000BD0000DF
:1001C0000D0A2075432F4F532D49492055736172F5
:1001D00074204D736751756575652044656D6F209A
:1001E0000D0A0000380100203403002065010008DA
:1001F000704700BFFEE700BFFEE700BFFEE700BF9D
:10020000FEE77047704710B504F088FF044603F01E
:100210001CF8204604F086FF03F026F903F030F8BE
:1002200010BD10B501E000F0C8FA02F015F9002881
:10023000F9D1402002F079FB4FF4803002F075FBD9
:1002400010BD7047704770477047704770477047E0
:1002500070477047704770477047704770477047E6
:1002600070477047704770477047704770477047D6
:1002700070477047704770477047704770477047C6
:1002800070477047704770477047704770477047B6
:10029000704770477047704708B500214FF0006005
:1002A00000F01DFE4FF4A06000F0E2FD3D208DF84F
:1002B000000002208DF8010000208DF802000120CE
:1002C0008DF80300684600F0D8FD08BD00B5AFB05A
:1002D000012000F0D2FF4FF4004001F0A4F801200B
:1002E00001F0AAF800BF3D2001F028F80028FAD05C
:1002F0000B2001F03DFA01F09FFD02F0EEFA00BF85
:1003000002F0F2FA0128FBD0684601F02FFF01202D
:100310000090002007904FF400700A9000200B908E
:100320000E90119013901490159020904FF0007043
:1003300021900011239000202590269004202890E1
:10034000C005299040122A9080012B9040122C90D9
:1003500040002E900121684601F0E8FD0121A048EF
:1003600002F0FAFA2FB000BD08B501214FF4E030D9
:1003700001F0AAF901217D2001F0B3F90420ADF8C4
:10038000000003208DF8020018208DF80300694654
:10039000944800F03BFE0620ADF8000003208DF8E5
:1003A000020018208DF8030069468F4800F02EFEE9
:1003B00043F62010ADF8000003208DF8020018204D
:1003C0008DF803006946894800F020FE01214FF0B6
:1003D000201000F0ECFE0B20ADF8000003208DF89B
:1003E000020004208DF8030069467E4800F00EFEEE
:1003F0004FF48060ADF8000003208DF80200042067
:100400008DF803006946794800F000FE0820ADF839
:10041000000003208DF8020004208DF803006946D7
:10042000714800F0F3FD4FF4F850ADF800000320E0
:100430008DF8020004208DF8030069466C4800F036
:10044000E5FD1020ADF8000000208DF8030069469E
:10045000654800F0DBFD4FF48070ADF8000003202C
:100460008DF8020018208DF8030069465D4800F001
:10047000CDFDFFF72BFF08BD00B587B0012144F289
:10048000050001F02EF94FF40070ADF818000320BC
:100490008DF81A0018208DF81B0006A9514800F0AD
:1004A000B5FD4FF48060ADF8180004208DF81B00F6
:1004B00006A94C4800F0AAFD4FF4E130029000205C
:1004C000ADF80C00ADF80E00ADF81000ADF814005A
:1004D0000C20ADF812000020ADF80000ADF80200CD
:1004E0004FF40070ADF804000020ADF80600694636
:1004F000404801F013FA02A93E4801F09AF901219F
:100500003C4801F022FA07B000BD08B501212020C7
:1005100001F0E7F81420ADF8000003208DF8020088
:1005200010208DF803006946314800F06FFD14215A
:100530002F4800F018FE08BD10B501F0C3FBFFF70F
:10054000E4FFFFF799FFFFF70FFFFFF7A5FE10BDD0
:1005500027490C31086880F004000860704724497E
:100560000C31086880F010000860704770B50446D0
:100570000D46E1B21F4801F055FA00BF1D48008842
:1005800000F080000028F9D0204670BD30B51A4830
:1005900000684FF47A72B0FBF2F1B1F1807F00D3C2
:1005A0001DE021F07F40401E4FF0E02250615017C7
:1005B0000F22002807DA13071D0E104B00F00F045E
:1005C000241F1D5503E013071C0E0D4B1C5400BFC8
:1005D00000204FF0E02290610720106100BF30BD85
:1005E000400001000008014000100140000C0140E3
:1005F00000140140003801402400002018ED00E004
:1006000000E400E008E0FFF7AAFF4FF4FA730022CD
:100610001146104604F0BAFCF5E707E0FFF798FF33
:10062000002301221946184604F0B0FCF6E700B595
:1006300085B0032000218022094BCDE90132CDE9AC
:10064000031008200346074A0090074804F065F9A4
:100650000923064A0021064804F003F905B000BD4D
:1006600038030020340500201B0600083407002052
:100670000506000870B504462546286804F05BFFAF
:1006800070BD10B54F4890F82C2090F82B104EA05C
:100690000FF048FE4B48406808F0EDFC0446214648
:1006A00052A00FF03FFE4748C06808F0E4FC044643
:1006B000214652A00FF036FE4248806808F0DBFC6D
:1006C0000446214651A00FF02DFE10BD00B589B0A3
:1006D0003C48406851490968884227D039484068F9
:1006E0004E49086008460068000E8DF82000084654
:1006F0000068000C8DF8210008460088000A8DF87B
:100700002200084600788DF823009DF820009DF80F
:100710002110CDE900109DF822309DF8232040A142
:1007200003A80FF00FFEFFF7ACFF00BF09B000BD3C
:1007300000B589B03FA103C9CDE9040105F03BF83C
:1007400009F02FFC09F038FF3CA00FF0EBFD002072
:1007500004F0DEFE039003A93F4808F087F90398F0
:100760000BF050F9039804F0EDFE3CA00FF0DAFD19
:10077000404808F0BFFB08906FF0FF0008F0BAFB9C
:1007800007903C48C01F08F0B5FB069004A804F091
:1007900017FD39483949002206ABCDE90021029006
:1007A00007AA08A907480AF02CF806480AF059F8E1
:1007B00004480AF09EF809B000BD10B5014804F0E5
:1007C00028FE10BD3807002044656661756C7420F2
:1007D0006E6574776F726B20696E746572666163A3
:1007E000653A20256325630A0000000069702061D6
:1007F0006464726573733A2025730A006777206119
:100800006464726573733A2025730A006E65742000
:100810006D61736B20203A2025730A0000000020D0
:1008200020202025642E25642E25642E256420207A
:100830002020000000000000000100005443502F61
:10084000495020696E697469616C697A696E672EB6
:100850002E2E200D0A000000750600085443502F6C
:10086000495020696E697469616C697A65642E20EB
:100870000D0A00000801A8C01D8900083F540008A7
:100880002DE9F04107460E4614461D46002D2CD199
:10089000002C2AD076480660218930460BF0EFFF05
:1008A0007448007800F0010040B12289618972A08B
:1008B0000FF038FD75A061680FF034FD628976484D
:1008C00061680FF06FFCA07A744908700023084635
:1008D00002787149664800680EF0C2F86448006802
:1008E0000EF043F920460AF037F8ADB9A4B96148D3
:1008F000007800F0040028B169A354226F4970A069
:100900000FF010FD002130460CF096F930460BF048
:1009100080FD00205649086055B15648007800F027
:10092000040028B158A36022644965A00FF0FAFCC6
:1009300000252846BDE8F08170B504460D4663A049
:100940000FF0F0FC4A48006830B1494800680BF0ED
:1009500060FD002046490860002070BD70B5064665
:100960000C4615464348007800F0010010B15EA027
:100970000FF0D8FC012120460CF06DF861492046AB
:100980000CF05AF9604920460CF05CF90025284625
:1009900070BD70B55DA00FF0C5FC4FF47A7004F027
:1009A000C5FA0CF002F9044641F288325D4920464E
:1009B0000BF0DCFD054675B12E48007800F0040010
:1009C00028B131A3A72258493DA00FF0ABFC29461E
:1009D00056A00FF0A7FCFF2120460BF04BFE04466B
:1009E00074B92448007800F0040028B126A3AF228F
:1009F0004D4933A00FF096FC214651A00FF092FC18
:100A000055A00FF08FFC5B4920460CF01EF970BD1D
:100A100070B505460E4616480068002827D0B2B2C9
:100A200000232946124800680EF01AF8044674B1F3
:100A30001048007800F0040028B113A3D6224E49D4
:100A40001FA00FF06FFC21464CA00FF06BFC084874
:100A500000680EF08AF850B10648007800F00400F3
:100A600028B109A3DD22444915A00FF05BFC70BD3D
:100A7000040000200C0000200D0A20702D3E6C6543
:100A80006E2025642F256420000000006D73673AF6
:100A90005B25735D0000000068070020080000204F
:100AA0000D0A20636C6F736520736F636B65742030
:100AB000696E2072656376200D0A000056060108F3
:100AC0000A2573282564293A202573000D0A202A57
:100AD0002A2A207463705376725F65727228292AFD
:100AE0002A2A2A20000000000D0A20746370206367
:100AF0006F6E6E6563742061636365707465642EE8
:100B00002E20000081080008390900080D0A7374BE
:100B10006172742020746370536572766572496ED9
:100B2000697420002C080108620601080D0A74632C
:100B3000705F62696E64207265743A30782578005F
:100B40000D0A7463705F6C697374656E2070636204
:100B50003A307825780000000D0A7463705F6C6984
:100B60007374656E207063622073746172742E2ECC
:100B70002E2E00005D0900087006010872657420C1
:100B80003A307825782000002DE9F04F89B083466F
:100B900000264FF4007009F025FB05462DB95BA037
:100BA0000FF0C0FB09B0BDE8F08F00220121022048
:100BB00007F04FF90746401C30B957A00FF0B2FBC1
:100BC000284609F019FAEDE702208DF8110041F2EC
:100BD0008A3008F088FAADF812000020059008224B
:100BE000114606A80FF0F0FA102204A9384606F0C4
:100BF000C1FD401C30B94CA00FF094FB284609F011
:100C0000FBF9CFE70521384606F0E2FE401C30B97B
:100C100049A00FF087FB284609F0EEF9C2E741F240
:100C20008A3149A00FF07EFB54E01020089008AAFA
:100C30006946384606F0CFFC8046BDF8020008F051
:100C400058FA8146019808F016FA82464A465146FB
:100C500049A00FF067FB3BE000234FF400722946E8
:100C6000404606F0EAFF0446002C0BDC1CB94BA002
:100C70000FF058FB02E050A00FF054FB404606F086
:100C800030FE26E0002322462946404607F0A4F81D
:100C90000020285553A128460FF0A8FA20B152A1F0
:100CA00028460FF0A3FA30B950A00FF03BFB4046A6
:100CB00006F017FE0DE057A128460FF097FA38B955
:100CC00056A00FF02FFB404606F00BFE012600E079
:100CD000C2E700BF012EA8D1284609F08DF900BF58
:100CE00060E710B504462046FFF74EFF57A00FF00F
:100CF00019FBFF2003F06BFE10BD10B50F235A4AFD
:100D000000215A4803F0ADFD10BD00004E6F206D6C
:100D1000656D6F72790A0000536F636B65742065AF
:100D200072726F720A000000556E61626C65207409
:100D30006F2062696E640A004C697374656E206589
:100D400072726F720A0000000A5443505365727643
:100D500065722057616974696E6720666F722063DF
:100D60006C69656E74206F6E20706F7274202564DC
:100D70002E2E2E0A000000004920676F742061208B
:100D8000636F6E6E656374696F6E2066726F6D203F
:100D9000282573202C202564290A0000636C6965CE
:100DA0006E7420636C6F736520636F6E6E65637421
:100DB000696F6E2E0A00000072656365697665646E
:100DC000206661696C65642C20736572766572209B
:100DD000636C6F736520636F6E6E656374696F6EAD
:100DE0002E0A00007100000051000000726563656A
:100DF0006976652022712220636F6D6D616E642CAF
:100E000020636C6F736520636F6E6E656374696FCA
:100E10006E2E0A00657869740000000072656365D3
:100E20006976652022657869742220636F6D6D6133
:100E30006E642C20657869742074637073657276B3
:100E40006572207461736B2E0A00000044656C6546
:100E5000746520546370736572766572207468726D
:100E60006561642E0A000000780C0020E30C000885
:100E700031490143314A1160704770B500210023A8
:100E80000F22C47804B32D4C246804F4E064C4F544
:100E9000E064210AC1F10403CA40447804FA03F172
:100EA0008478144021430901254C0678A155047823
:100EB00004F01F050124AC4005786D11AD0005F16B
:100EC000E025C5F8004109E0047804F01F0501247D
:100ED000AC401C4D0678761145F8264070BD1A4A84
:100EE0000A400243154B1B1F1A60704739B1134A61
:100EF000121D12680243114B1B1D1A6006E00F4AB7
:100F0000121D126882430D4B1B1D1A607047042886
:100F100008D14FF0E021096941F004014FF0E022CF
:100F2000116107E04FF0E021096921F004014FF061
:100F3000E0221161704700000000FA050CED00E0AE
:100F400000E400E080E100E080FFFF1F10B50446F0
:100F5000CC48844208D10121042000F0E9FB0021A3
:100F6000042000F0E5FB46E0C748844208D1012197
:100F7000082000F0DDFB0021082000F0D9FB3AE05A
:100F8000C248844208D10121102000F0D1FB002189
:100F9000102000F0CDFB2EE0BD48844208D1012195
:100FA000202000F0C5FB0021202000F0C1FB22E042
:100FB000B848844208D10121402000F0B9FB00214B
:100FC000402000F0B5FB16E0B348844208D101216F
:100FD000802000F0ADFB0021802000F0A9FB0AE09A
:100FE000AE48844207D10121801500F0A1FB002109
:100FF000A01500F09DFB10BD10B50121084600F0C2
:1010000097FB0021012000F093FB10BD2DE9F0417A
:10101000024600250026002000230024002791F826
:1010200003C00CF00F0591F803C00CF0100CBCF1DC
:10103000000F03D091F802C04CEA050591F800C0FA
:10104000BCF1000F31D0146800202BE04FF0010CF0
:101050000CFA00F3B1F800C00CEA03069E4220D15E
:1010600083004FF00F0C0CFA03F7BC4305FA03FCA6
:101070004CEA040491F803C0BCF1280F06D14FF0EC
:10108000010C0CFA00FCC2F814C00AE091F803C08D
:10109000BCF1480F05D14FF0010C0CFA00FCC2F86E
:1010A00010C0401C0828D1D31460B1F800C0BCF1B6
:1010B000FF0F34DD546800202EE000F1080C4FF0E3
:1010C000010808FA0CF3B1F800C00CEA03069E42CE
:1010D00021D183004FF00F0C0CFA03F7BC4305FA43
:1010E00003FC4CEA040491F803C0BCF1280F05D1BD
:1010F00000F1080C08FA0CF8C2F8148091F803C04B
:10110000BCF1480F07D100F1080C4FF0010808FAB4
:101110000CF8C2F81080401C0828CED35460BDE8FB
:10112000F0814FF6FF710180022181700421C170AE
:1011300070470246002093680B400BB1012000E08D
:10114000002070470146886880B270470246002040
:10115000D3680B400BB1012000E00020704701462E
:10116000C86880B2704701617047416170470AB139
:10117000016100E041617047C16070474FF4803207
:101180000A43826181618261826982697047024695
:101190000020434B18684FF68073184040EA021055
:1011A00008433F4B186070473E49C8617047F0B52F
:1011B0000A46002300240021002500F00046B6F175
:1011C000004F02D1364EF16901E0354E7168C0F32F
:1011D000034583B200F44016B6F5401F08D121F054
:1011E00070612F4E766826F070662D4F7E6012E09B
:1011F00000F48016B6F5801F06D1032606FA05F422
:10120000A14341F0706106E0460D360103FA06F68F
:10121000B14341F0706122B1460D360103FA06F682
:10122000314300F00046B6F1004F02D11C4EF1618F
:1012300001E01B4E7160F0BD30B500228B071C0F22
:101240000F2303FA04F2164B08338C1053F82430A2
:101250009343134C08348D1044F8253023468C10EA
:1012600053F824308C07240F00FA04F423430C4C69
:1012700008348D1044F8253030BD0A49DC3108604F
:101280007047000000080140000C014000100140C0
:101290000014014000180140001C014000200140E2
:1012A0000000014000002042FB48006840F00100BF
:1012B000F949086008464068F8490840F64948601E
:1012C00008460068F6490840F34908600846006887
:1012D00020F4802008600846406820F4FE00486042
:1012E0000846006820F0A05008604FF47F00886036
:1012F0000020C8627047E849096821F48031E64A55
:1013000011601146096821F480211160B0F5803F19
:1013100003D0B0F5802F0ED106E0DF49096841F413
:101320008031DD4A116007E0DB49096841F4A02102
:10133000D94A116000E000BF00BF704710B50146F8
:101340000022002300204A11012A02D1D24C236836
:1013500006E0022A02D1D04C236A01E0CE4C636A37
:1013600001F01F02012494401C400CB1012000E058
:10137000002010BD38B5002000900024002500BFDB
:101380003120FFF7DBFF05460098401C00900098D5
:10139000B0F5A06F01D0002DF2D03120FFF7CEFFC5
:1013A00008B1012400E00024204638BD0146002099
:1013B000B94A106820F0F80040EAC1001060704798
:1013C000B8490860704702460020B34B586820F4C3
:1013D000741042EA01031843AF4B58607047B1499B
:1013E0000866704702460020AB4BD86AAE4B1840E7
:1013F00042EA01031843A84BD86270470146002017
:10140000A54AD06A20F0F0000843D0627047014638
:101410000020A14AD06A20F470600843D06270476F
:10142000A04988667047014600209B4AD06A20F494
:1014300070400843D06270479A4908677047014678
:101440000020954A506820F0030008435060704720
:101450009148406800F00C007047014600208E4A19
:10146000506820F0F00008435060704701460020AB
:10147000894A506820F4E060084350607047014694
:101480000020854A506820F4605040EAC100506056
:10149000704729B1804A527A02437F4B5A7204E066
:1014A0007D4A527A82437C4B5A7270477D49D831CB
:1014B0000860704701460020774A506820F4404099
:1014C0000843506070477949086070477749091DA3
:1014D000086070470021704A203211706E4A82F80D
:1014E0002010012802D004280AD104E001216A4A10
:1014F0002032117005E00521674A2032117000E0AA
:1015000000BF00BF70476A49086070476249096AB6
:101510000143614A11627047654944390860704768
:101520002DE9F0410021002200250023002600249F
:1015300000278C46DFF86081D8F8048008F00C01A1
:1015400021B1042907D0082959D109E0DFF86481C5
:10155000C0F8008058E0DFF86081C0F8008053E0F8
:10156000DFF83481D8F8048008F47012DFF828819D
:10157000D8F8048008F48035920C0D2A01D0921C12
:1015800000E0062235B9DFF8348102FB08F8C0F824
:10159000008033E0DFF80081D8F82C8008F4803632
:1015A000DFF8F480D8F82C8008F00F0808F1010467
:1015B00046B9DFF80481B8FBF4F808FB02F8C0F87C
:1015C00000801BE0DFF8D080D8F82C80C8F3031827
:1015D00008F10107DFF8C080D8F82C80C8F3032891
:1015E00008F1020CDFF8D080B8FBF7F808FB0CF824
:1015F000B8FBF4F808FB02F8C0F8008004E0DFF85C
:10160000B480C0F8008000BF00BFDFF88C80D8F83D
:10161000048008F0F0010909DFF8A48018F801300F
:10162000D0F8008028FA03F8C0F80480DFF868805A
:10163000D8F8048008F4E061090ADFF8848018F81B
:101640000130D0F8048028FA03F8C0F80880DFF8E9
:101650004880D8F8048008F46051C90ADFF8608037
:1016600018F80130D0F8048028FA03F8C0F80C808C
:10167000DFF82480D8F8048008F44041890BDFF8B3
:10168000448018F80130D0F80C80B8FBF3F8C0F8AB
:101690001080BDE8F0810000001002400000FFF063
:1016A000FFFFF6FE00004242F0FFFEFFC40542428B
:1016B0008004424200127A0040787D0100093D001A
:1016C000100000202000002029B1354A5269024351
:1016D000334B5A6104E0324A52698243304B5A61BB
:1016E000704729B12E4A926902432D4B9A6104E05A
:1016F0002B4A926982432A4B9A61704729B1284A42
:10170000D2690243264BDA6104E0254AD26982435A
:10171000234BDA61704729B1214A926A0243204B78
:101720009A6204E01E4A926A82431D4B9A62704795
:1017300029B11B4AD2680243194BDA6004E0184A07
:10174000D2688243164BDA60704729B1144A126995
:101750000243134B1A6104E0114A12698243104B91
:101760001A6170470F49086070470F49C864704795
:101770000B49C87170470A48406A40F080700849B8
:101780004862704701460020054A92680A400AB143
:10179000012000E000207047014988727047000076
:1017A00000100240400442420000424210B504468C
:1017B000FB48844209D101218803FFF7B9FF0021CA
:1017C0004FF48040FFF7B4FF32E0F648844209D17D
:1017D00001214804FFF7B9FF00214FF40030FFF763
:1017E000B4FF25E0F048844209D101218804FFF7C5
:1017F000ACFF00214FF48020FFF7A7FF18E0EB4873
:10180000844209D10121C804FFF79FFF00214FF452
:101810000020FFF79AFF0BE0E548844208D1012140
:101820000805FFF792FF00214FF48010FFF78DFFAE
:1018300010BD2DE9F04786B005460E460024A246AD
:1018400000BFA1460027B08900B100BF2F462C8AF7
:101850004CF6FF700440F08804432C82AC894EF6AD
:10186000F3100440B0883189084371890843044368
:10187000AC81AC8A4FF6FF400440B0890443AC828F
:1018800001A8FFF74DFEC648874202D1DDF810A03F
:1018900001E0DDF80CA0A88900F4004040B10AEB9B
:1018A000CA0000EB0A1031684900B0FBF1F807E00C
:1018B0000AEBCA0000EB0A1031688900B0FBF1F8AE
:1018C0006420B8FBF0F004012009642101FB1089B9
:1018D000A88900F4004040B1322000EBC900B0FB01
:1018E000F1F000F00700044308E0322000EB09109B
:1018F0006421B0FBF1F000F00F0004432C8106B02E
:10190000BDE8F0874FF41651016000218180C1804D
:1019100001810C21418100218181704710B502466F
:101920000020108A4FF2FF0318400B884C88234395
:101930008C882343CC8823431843108210BD002198
:10194000018041808180C180704721B1828942F449
:101950000052828104E082894DF6FF731A40828131
:101960007047F0B50346002400260025002040F60D
:101970006A17B94200D100BF1846C1F3421401F002
:101980001F06012707FA06F5012C01D10C3004E0EF
:10199000022C01D1103000E014301AB107682F4337
:1019A000076002E00768AF430760F0BD1AB1838AA1
:1019B0000B43838202E0838A8B4383827047028ACF
:1019C0004FF6F0731A400282028A0A43028270477D
:1019D00082894FF2FF731A40828182890A43828191
:1019E000704721B1828942F00202828104E082893B
:1019F0004FF6FD731A4082817047028A4FF6DF73FB
:101A00001A400282028A0A430282704721B1028A86
:101A100042F48042028204E0028A4BF6FF731A40CD
:101A200002827047C1F308028280704701468888AD
:101A3000C0F308007047818941F00101818170473E
:101A4000028BD2B20283028B42EA012202837047E8
:101A5000028B02F47F420283028B0A4302837047A7
:101A600021B1828A42F02002828204E0828A4FF60B
:101A7000DF731A408282704721B1828A42F01002DD
:101A8000828204E0828A4FF6EF731A4082827047A6
:101A900021B1828A42F00802828204E0828A4FF6F3
:101AA000F7731A408282704721B1828942F4004262
:101AB000828103E08289C2F30E028281704721B1E4
:101AC000828A42F40062828204E0828A4FF2FF73CB
:101AD0001A4082827047828A4FF6FB731A408282D4
:101AE000828A0A438282704721B1828A42F00202CE
:101AF000828204E0828A4FF6FD731A408282704728
:101B000002460020B1F5007F00D100BF13880B40D2
:101B10000BB1012000E00020704701F40072B2F523
:101B2000007F00D100BFCA430280704770B50246F3
:101B3000002400230025002040F66A16B14200D19F
:101B400000BFC1F3421501F01F03012606FA03F39B
:101B5000012D02D19689334006E0022D02D1168A6A
:101B6000334001E0968A33400C12012606FA04F451
:101B70001688344013B10CB1012000E0002070BD84
:101B800010B50022002340F66A14A14200D100BF24
:101B90000A1201249440A3B2DC43048010BD00006B
:101BA000003801400044004000480040004C004024
:101BB000005000400CB50020019000909248006851
:101BC00040F480309049086000BF8F48006800F4FE
:101BD000003000900198401C0190009818B90198BD
:101BE000B0F5A06FF1D18848006800F4003010B162
:101BF0000120009001E000200090009801285CD1B5
:101C00008248006840F0100080490860084600687B
:101C100020F0030008600846006840F002000860F9
:101C200079484068784948600846406848600846F6
:101C3000406840F4806048600846C06A74490840C3
:101C40007149C8620846C06A724908436E49C86251
:101C50000846006840F08060086000BF6A4800687D
:101C600000F000600028F9D06748406820F47C103C
:101C7000654948600846406840F4E81048600846F6
:101C8000006840F08070086000BF5F48006800F0A6
:101C900000700028F9D05C48406820F003005A49E1
:101CA00048600846406840F00200486000BF56485F
:101CB000406800F00C000828F9D10CBD10B5FFF702
:101CC00079FF10BD10B55048006840F001004E4942
:101CD000086008464068504908404B49486008463B
:101CE00000684E490840484908600846006820F4EA
:101CF000802008600846406820F4FE0048600846DE
:101D0000006820F0A05008604FF47F008860002039
:101D1000C862FFF7D3FF4FF000604149086010BD73
:101D2000F0B5002100200023002400220025002619
:101D3000354F7F6807F00C0121B1042908D008292C
:101D40004BD10BE0374FDFF8E0C0CCF800704AE031
:101D5000364FDFF8D4C0CCF8007044E02A4F7F68DB
:101D600007F47010284F7F6807F48033800C0D282B
:101D700001D0801C00E0062033B92D4F4743DFF827
:101D8000A8C0CCF8007027E01F4FFF6A07F480342A
:101D90001D4FFF6A07F00F077A1C44B9234FB7FBAA
:101DA000F2F74743DFF880C0CCF8007014E0164F1C
:101DB000FF6AC7F303177D1C134FFF6AC7F303279E
:101DC000BE1C1A4FB7FBF5F77743B7FBF2F7474353
:101DD000DFF854C0CCF8007005E0124FDFF848C0BF
:101DE000CCF8007000BF00BF074F7F68C7F3031730
:101DF000DFF840C01CF807100B4F3F68CF40DFF8FA
:101E000028C0CCF80070F0BD001002400020024055
:101E100000F0FEFF440601000000FFF0FFFFF6FEA9
:101E200008ED00E000127A002400002040787D01D7
:101E300000093D002800002010B501218803FFF7AC
:101E40006AFC00214FF48040FFF765FC10BD01B52E
:101E500081B0002000900198009002E00098401EA0
:101E6000009000980028F9D10CBD38B503460C4607
:101E7000002100200090F948016901F01C014FF495
:101E8000784000EAC32001434FF4F86000EA841070
:101E9000014341F0020141F00101F048426101615A
:101EA00000BF0098401C0090EC48016901F001005F
:101EB00018B1EB4D0098A842F3D3E94D0098A84221
:101EC00001D1002038BD0120FCE718B502460B46C1
:101ED000002100200090E148016901F01C014FF44D
:101EE000784000EAC22001434FF4F86000EA831012
:101EF000014321F0020141F00101D848016100BF16
:101F00000098401C0090D548016901F0010018B10B
:101F1000D34C0098A042F3D3D14C0098A04201D1F9
:101F2000002018BDCD48406980B2FAE72DE9F041A4
:101F300088B004460F464FF00008002500200790A7
:101F4000C84E0190C548056925F01C0502A8FFF799
:101F5000E7FA039EC448864205D3C448864202D2AB
:101F600045F0080509E0C148864205D3BD488642D0
:101F700002D245F00C0500E000BFB84805614FF4FF
:101F8000004200213846FFF770FF18B9002008B062
:101F9000BDE8F081B648FFF75AFF206800284ED010
:101FA00000BF0198401C019001213846FFF78DFFCA
:101FB00000F0040018B9AA4901988842F1D3A84951
:101FC0000198884201D10020E1E7002001904FF400
:101FD000805200213846FFF748FF08B90020D6E7B5
:101FE00000BF0198401C019001213846FFF76DFFAA
:101FF00000F0200018B99A4901988842F1D3984915
:102000000198884201D10020C1E7002001901021F1
:102010003846FFF75AFF804608F0040018B14FF425
:102020000060206201E00020206208F0020010B190
:102030000020606116E04FF48040606112E0206A89
:10204000C0F3CF006169C1F34F0140EA01020021F2
:102050003846FFF70AFF08B9002098E76FF07F4085
:10206000FFF7F5FE7D48056882480540D4E9010187
:102070000843E16808432169084361690843A1698D
:102080000843E1690843216A0843616A0843A16A79
:102090000843E16A0843216B0843616B0843054329
:1020A0006E480560D4E90E010843216C0843616C59
:1020B0000843A16C0843E16C0843216D0843616D3E
:1020C000084366494860A06D8860E06DC8600846B6
:1020D00085694FF641700540B4F86010606E40EAC3
:1020E0000140A16E0843E16E0843216F0843616F10
:1020F0000843054359488561D4E91E0108435749FF
:10210000C8615D4885695D480540D4E92001084300
:10211000D4F888100843D4F88C100843D4F89010F1
:102120000843D4F894100843D4F898100843D4F81E
:102130009C100843D4F8A010084305434E4885611D
:10214000D4E929010843D4F8AC100843D4F8B010FE
:102150000843D4F8B41040EA8100D4F8B81008431A
:1021600040F4000044490860012010E700210160AC
:1021700041608160C160016141618161C161016251
:1021800041628162C162016341638163C163402135
:1021900001642021416400218164C16401654165BD
:1021A0008165C16501668021416600218166C16645
:1021B000016741678167C1674FF08061C0F8801097
:1021C0004910C0F884104910C0F88810C910C0F830
:1021D0008C100021C0F89010C0F89410C0F898102E
:1021E000C0F89C10C0F8A0104FF00071C0F8A41007
:1021F0000021C0F8A8104FF40031C0F8AC1049120B
:10220000C0F8B0100021C0F8B410C0F8B810704782
:1022100030B11949896941F00201174A916105E01D
:102220001549896921F00201134A9161704730B163
:102230001149896941F400510F4A916105E00E4945
:10224000896921F400510C4A91617047C0B103497A
:10225000096841F00401014A116017E00080024062
:10226000FFFF040000879303002D3101C00E16020A
:10227000FFFF0F000F8120FF00900240233FDEF898
:10228000F749096821F00401F54A11607047F548E3
:10229000806940F48010F3498861704730B1F0499B
:1022A000096841F00801EE4A116005E0EC4909684F
:1022B00021F00801EA4A1160704700B50120FFF7DC
:1022C000EDFFFFF7E4FF0120FFF7C0FF0120FFF75C
:1022D000AEFF0120FFF79CFF00BD10B503460A4684
:1022E0000021E1480068006800F0004008B10020CB
:1022F00010BD002105E0585CDB4C2468A4686054E4
:10230000491C9142F7D3C2F30C00D74C246860609B
:10231000D5480068006840F04050D34C24682060E5
:10232000D1480068006840F00040CF4C246820602D
:10233000CC48406900F0040020B10420C94C606121
:1023400000206060C8480068006800F4801028B170
:10235000C5480068C068C44C206014E0C2480068EA
:10236000006800F4001020B1BE480069BE4C206037
:1023700009E0BC480068C0F38404BB480068103022
:102380002044B94C20600120B2E710B5024600217C
:102390000023B6480068006800F0004008B1002043
:1023A00010BDB2480068008800F40040E0B9AF48B2
:1023B0000068008800F48070B0B1AC480068008804
:1023C00000F4007080B1A94800680068C0F30D40B7
:1023D000031F002105E0A54800688068405C505458
:1023E000491C9942F7D300E000234FF000409F4C76
:1023F000246820609B48406900F0800020B1802064
:10240000984C60610020A06098480068808800F4C3
:10241000804028B195480068C068944C206014E062
:1024200092480068808800F4004020B18D48C06860
:102430008E4C206009E08B480068C0F384048B4810
:10244000006810302044894C20601846A8E70146F7
:102450000868C0F30D40704700B50022834800684B
:10246000006800F00040B0B980480068008800F4BF
:10247000004080B97D480068008800F4807050B149
:102480007A480068008800F4007020B1774800683E
:10249000FFF7DDFF0246104600BD4FF000407349D4
:1024A0000968086071480068808800F4804028B19D
:1024B0006E480068C0686D49086014E06B480068A9
:1024C000808800F4004020B16648C0686749086011
:1024D00009E064480068C0F3840164480068103073
:1024E000084462490860704770B506460D460024EE
:1024F00000213046FFF7E9FC044615B144F480445E
:1025000002E04BF6FF700440224600213046FFF700
:10251000ACFC08B1012070BD0020FCE70020504950
:10252000896901F0010109B1012000E00020704734
:102530004B48806940F0010049498861704730B1DB
:102540004749896941F00101454A916105E04449E3
:10255000896921F00101424A9161704701460020DA
:102560003F4A926B0A400AB1012000E00020704708
:10257000014600203A4A926B0A400AB1012000E06D
:102580000020704729B1364AD26B8243344BDA635C
:1025900004E0334AD26B0243314BDA63704710B523
:1025A0000B794C7943EA04222D4B03441A64CB780F
:1025B0001B068C7843EA04434C7843EA04230C78E6
:1025C00043EA0402264B03445A6410BD0246244BDE
:1025D0001344186C030A4B710871214B1344586C57
:1025E000030ECB70030C8B70030A4B70087070479E
:1025F00041B11B4A0244126C42F00042184B0344A2
:102600001A6407E0164A0244126C22F00042144B8E
:1026100003441A647047082908D0114A0244126C16
:1026200042F080420E4B03441A6407E00C4A024415
:10263000126C22F080420A4B03441A647047084A25
:102640000244126C22F07C52054B03441A64044A83
:102650000244126C0A43024B03441A6470470000A0
:102660000080024000900240380000203C00002022
:1026700030B50C4613460021F64D286000BF15E02A
:1026800000EB01124FF480151560C1EB411505EB0D
:10269000811504EB051595605D1E8D4204D900EB94
:1026A00001151035D56000E0D060491C9942E7D390
:1026B000E94D286130BD70B504460D460020E54E59
:1026C000346000BF16E004EB0011C0EB401606EBCF
:1026D000801605EB06168E60C0EB401606EB8016E2
:1026E00002EB0616CE605E1E864202D14FF4001643
:1026F0000E60401C9842E6D3D74E346170BD02464E
:10270000002013680B400BB1012000E0002070474F
:1027100001460878C0F3C3007047016841F00041EA
:102720000160704721B1026842F08042026003E01C
:10273000026822F080420260704702680A43026029
:10274000704702680A430260704721B1026822F0B4
:102750000062026003E0026842F0006202607047BB
:1027600021B1026842F40012026003E0026822F420
:1027700000120260704721B1026842F480120260C8
:1027800003E0026822F480120260704721B10268FF
:1027900022F08062026003E0026842F08062026020
:1027A000704721B1026842F00072026003E00268E3
:1027B00022F000720260704710B541EA024443689B
:1027C0002343436010BD30B50C4613460021A34D92
:1027D000286000BF18E000EB01124FF000451560C3
:1027E00044F2F0555560C1EB411505EB811504EB42
:1027F000051595605D1E8D4204D900EB011510355D
:10280000D56000E0D060491C9942E4D3924DE86065
:1028100030BD70B504460D460021904E346000BFB7
:102820001DE004EB01104FF0004606604FF4BE6659
:102830004660C1EB411606EB811605EB0616866075
:10284000C1EB411606EB811602EB0616C6605E1E52
:102850008E4203D1466846F400464660491C9942C0
:10286000DFD37D4EF46070BD0246002013680B403C
:102870000BB1012000E000207047016841F00041E9
:102880000160704721B1426822F00042426003E0DB
:10289000426842F000424260704721B1426842F40F
:1028A0000042426003E0426822F400424260704706
:1028B00021B1426842F48042426003E0426822F45F
:1028C000804242607047024619B15068C0F30C4024
:1028D00070479088C0F30C00FAE75F48006840F04A
:1028E00001005D490860704700205B49096801F0FC
:1028F000010109B1012000E00020704701460020DD
:10290000554A52690A400AB1012000E00020704790
:10291000514948617047014600204F4A52690A40B8
:102920000AB1012000E0002070474B494861704720
:102930004948406900F0010070474748406900F08D
:102940004000704700204449896901F4801109B1B1
:10295000012000E00020704729B13F4AD2690243BC
:102960003D4BDA6104E03C4AD26982433A4BDA617A
:10297000704701460020384A126A0A400AB1012015
:1029800000E0002070473448006AC0F34A407047B6
:102990003148006A80B270472F48806C70472E48DB
:1029A000C06C70472C48006D70472B48406D7047D5
:1029B00000202949486070470020274988607047F7
:1029C0002748C06A40F000402549C8627047014668
:1029D000002000BF04E051F82020214B9A62401CE7
:1029E0000828F8D3704730B11D49C96A41F4007115
:1029F0001B4AD16205E01A49C96A21F40071184ADC
:102A0000D162704701460020154AD26A0A400AB1D5
:102A1000012000E00020704730B11149C96A41F03F
:102A200004010F4AD16205E00D49C96A21F0040191
:102A30000B4AD162704730B10949C96A41F00201BD
:102A4000074AD16205E00649C96A21F00201044A39
:102A5000D162704738000020009002403C00002006
:102A60000080024030B1F849C96A41F00101F64ADC
:102A7000D16205E0F449C96A21F00101F24AD1624C
:102A8000704738B1F149096841F00801EE4AC2F8CF
:102A9000001106E0ED49096821F00801EA4AC2F890
:102AA0000011704738B1E949096841F00401E64A6C
:102AB000C2F8001106E0E549096821F00401E24A84
:102AC000C2F80011704738B1E049096821F00201ED
:102AD000DD4AC2F8001106E0DC49096841F0020154
:102AE000D94AC2F800117047D848006840F0010088
:102AF000D549C1F80001704700F0805292B120F032
:102B0000805039B1D14A0C3212688243CE4BC3F89F
:102B10000C2117E0CD4A0C3212680243CA4BC3F8AD
:102B20000C210FE039B1C94A103212688243C64BFA
:102B3000C3F8102106E0C54A103212680243C24BA6
:102B4000C3F8102170470146002001F080526AB19D
:102B5000BE4A121D12680A4032B1BC4A0C321268D9
:102B60000A400AB101200EE000200CE0B74A08320A
:102B700012680A4032B1B54A0C3212680A400AB1F2
:102B8000012000E0002070470146AF480858704718
:102B9000AF48006840F02000AD4908607047AC487D
:102BA000006840F01000AA4908607047A848006813
:102BB00040F00800A64908607047A548006840F04A
:102BC0000400A3490860704730B1A149096841F089
:102BD00002019F4A116005E09D49096821F0020148
:102BE0009B4A1160704730B19949096841F0010171
:102BF000974A116005E09649096821F00101944A5D
:102C00001160704701460020914A12680A400AB1DB
:102C1000012000E0002070478D49091D08607047C1
:102C200010B58B4B1033196040EA0203884C143402
:102C3000236010BD8649183108607047844A1C32F1
:102C40001060121D1160704701467F480858704798
:102C5000F0B504460D4600207E4E34607E4E356051
:102C600000BF1DE004EB00114FF004760E60C0EBD6
:102C7000401606EB801602EB06168E605E1E86423C
:102C800004D904EB00161036CE6000E0CC6005EBF2
:102C900000178E68BE6005EB0017CE68FE60401C12
:102CA0009842DFD3461E05EB061635606B4E346145
:102CB000F0BDF0B504460D460020694E3460694E03
:102CC000356000BF20E004EB00114FF000460E60BD
:102CD00044F2F0564E60C0EB401606EB801602EB55
:102CE00006168E605E1E864204D904EB001610366E
:102CF000CE6000E0CC6005EB00178E68BE6005EB8F
:102D00000017CE68FE60401C9842DCD3461E05EBDF
:102D100006163560514EF460F0BD70B505460B46A1
:102D2000002100244B480068006800F0004008B112
:102D3000002070BD002105E0685C474E3668B6682B
:102D40007054491C9942F7D3C3F30C00414E3668C6
:102D5000706040480068006840F040503D4E366862
:102D600030603C480068006840F00040394E3668EA
:102D700030603A48406900F0040020B10420374E2A
:102D800070610020706000BF641C324800680068F9
:102D900000F4003018B94FF6FF708442F4D3324883
:102DA000844201D10020C4E72A480068006820F46A
:102DB0000030284E3668306026480068806801C2BE
:102DC00024480068C068106022480068006800F469
:102DD0008010A0B120480068C0681E4E30601E48B8
:102DE0000068006828B11C48006800681A4E30600E
:102DF00028E0194800681030174E306022E015486E
:102E00000068006800F4001040B114480069114ED9
:102E1000306012480069104E306013E00F480068BF
:102E2000C0F384060B48006810303044094E30600F
:102E30000A480068C0F38406074800681030304430
:102E4000054E3060012074E700800240008102409E
:102E5000008702403800002040000020009002401F
:102E60003C00002044000020FFFF040030B5034672
:102E7000002200243B480068006800F0004008B1D0
:102E8000002030BD37480068008800F40040E0B9F9
:102E900034480068008800F48070B0B131480068A0
:102EA000008800F4007080B12E4800680068C0F30C
:102EB0000D40041F002205E02B4800688068805CFC
:102EC0009854521CA242F7D300E0002427484069DE
:102ED00000F0800020B18020244D68610020A860AF
:102EE00020480068806801C11E480068C06808600A
:102EF0001C480068006840F000401A4D2D682860AA
:102F000018480068808800F48040A0B11648006826
:102F1000C068144D286014480068006828B1124841
:102F200000680068104D28601AE00F4800681030F3
:102F30000D4D286014E00B480068808800F40040C4
:102F400020B10A48C068074D286009E007480068BA
:102F5000C0F384050348006810302844014D286000
:102F600020468EE73C0000204400002000900240F4
:102F70000648804706480047FEE7FEE7FEE7FEE713
:102F8000FEE7FEE7FEE7FEE7FEE7FEE7C51C0008FA
:102F9000510100080246002005E011F8013B02F84B
:102FA000013B431CD8B20B78002BF6D1137070474D
:102FB0002DE9F04105460E461446002714B90020BD
:102FC000BDE8F0811DB9042020700020F8E71EB98B
:102FD0000C2020700020F3E7F6480078002803DD7D
:102FE000112020700020EBE72878012808D0022863
:102FF00007D0032802D0042804D100E000BF00BF9E
:1030000000BF03E0012020700020D9E700BF02F0DC
:1030100085F8074605F10F013046FFF7BBFF8046F4
:10302000384602F07FF8002020704046C8E701468D
:10303000002002E0491C421CD0B20A78002AF9D1D3
:1030400070472DE9F04105460E4614464FF0000842
:103050000CB9BDE8F08115B904202070F9E716B964
:103060000C202070F5E7D3480078002802DD1220FC
:103070002070EEE72878012808D0022807D003281E
:1030800002D0042804D100E000BF00BF00BF02E06E
:1030900001202070DDE700BF02F040F88046304696
:1030A000FFF7C5FF07460F2F05DD404602F03AF84F
:1030B0000B202070CDE7314605F10F00FFF76AFFC6
:1030C000404602F02FF80020207000BFC1E7002426
:1030D00000BF02F023F80446B7480068401CB64918
:1030E0000860204602F01EF800F086FBF1E700B50C
:1030F00087B0032000218022B04BCDE90132CDE919
:1031000003104FF6FF701F23AD4A0090AFF241004D
:1031100001F003FC06AAABA11F2001F086FD07B059
:1031200000BD04E0002200F8012B4A1E91B20029E4
:10313000F8DC704730B54FF40071A648FFF7F1FF97
:10314000A44B03F1200500240AE0002018705D6004
:103150003F20D8730021197420332035601C84B2BD
:103160000F2CF2DB0020187058603F20D87300212C
:10317000197498489849086030BD30B540F29451B0
:103180009648FFF7CEFF80219548FFF7CAFF934B83
:1031900003F1540500240AE05D613F2083F84400F8
:1031A00000214520C15454335435601CC4B2102C46
:1031B000F2D3002058613F2083F8440000214520CD
:1031C000C15400208749086084488749086030BDA1
:1031D0000022864B1A708649002004E0002201F884
:1031E000012B421CD0B20428F8DB0022814B1A705C
:1031F000814B1A70814B1A60814B1A607047002016
:10320000804908606B4908707F4908707F490870E1
:103210007F4908707F49086067490860704710B5AA
:1032200000F0E6FAFFF7EBFFFFF7D2FFFFF7A5FF8D
:10323000FFF780FF00F00BFD01F047F8FFF757FFA5
:1032400000F0D7FA00F05EFB10BD7148007801284D
:1032500008D158480078FF2804D256480078401C0E
:103260005449087070476C49604A1278885C60491C
:10327000095C694A515C01EBC0015F4A11707047FB
:1032800010B5002462480078012830D101F046FFD3
:10329000044648480078002804DD46480078401E6F
:1032A0004449087043480078F0B957480078D8B9C5
:1032B000FFF7D9FF504800784E490978884213D06B
:1032C00047484D49097850F821004C4908600846A4
:1032D0000068006B401C096808634E480068401C89
:1032E0004C49086001F036FF204601F01BFF10BD7D
:1032F00010B5002446480078012811D101F00EFFD6
:1033000004462C48007840B93F480078FF2804D292
:103310003D480078401C3C490870204601F002FFFF
:1033200010BD10B5002401F0F9FE044621480078D4
:10333000F0B935480078D8B9FFF795FF2E480078E6
:103340002C490978884213D025482B49097850F830
:1033500021002A49086008460068006B401C096883
:1033600008632C480068401C2A49086001F0EDFE03
:10337000204601F0D7FE10BD10B500242448007887
:10338000012858D101F0CAFE04461F4800780028E1
:103390004EDD1D480078401E1B4908700846007825
:1033A000E0BB04480078D0BB204601F0BBFEFFF72D
:1033B000B8FF40E0500000205C0000207C0E0020A0
:1033C0007810002075432F4F532D49492049646CD4
:1033D000650000007C0C00204C000020FC10002048
:1033E0007C1000206C0000206400002054000020AD
:1033F00055000020520000205300002068000020EB
:10340000600000207C000020510000205A000020B5
:1034100059000020480000208C06010804E0FFE766
:10342000204601F07FFE06E0204601F07BFE02E030
:10343000204601F077FE10BD10B5DF48007890B946
:10344000FFF711FFDD480078DD490870DD48DB49F2
:10345000097850F82100DC49086008460068DB491B
:10346000086001F062FE10BD70B5002600F015FA8C
:1034700001F054FE0646D6480068401CD449086056
:10348000304601F04FFECC480078012853D1D14896
:10349000007820B1012804D0022809D103E00125D9
:1034A0000BE0002509E001250120CA49087004E06D
:1034B00001250020C749087000BF00BF05B970BDD5
:1034C000C548046833E001F029FE0646A08C50B3DD
:1034D000A08C401E80B2A08428BB94F8260000F087
:1034E000370040B114F8260F20F03700207001207B
:1034F0006070263C02E0002084F8270094F8260043
:1035000000F0080078B92A34A078B4490978084353
:10351000B24908702078B249085C6178084314F811
:103520002A19AF4A50546469304601F0FBFD94F803
:1035300028001F28C7D100BFC1E74FF48F70704724
:10354000704710B590F82A2001F10B039B5C90F8AE
:103550002B40A34301F10B04A35423469B5C23B9E6
:103560008B7A90F82C40A3438B7210BD2DE9F04F5D
:1035700005460F4690469946A87A9A490E5C05F191
:103580000B00805D11F800B00BEBC60000F0FF0AE5
:103590008C4850F82A4000202034A0802760A07971
:1035A00020EA0800A07184F80790A079203C00F080
:1035B000080068B994F82C008849097808438749BD
:1035C00008708748805D94F82B100843844988551B
:1035D00029462046FFF7B5FF5046BDE8F08F10B5ED
:1035E0007A4A1268D061794A126892F82A3000F15A
:1035F0000B02D25C754B1B6893F82B301A43734B4C
:103600001B6893F82A4000F10B031A55827A6F4B1E
:103610001B6893F82C301A4382726C4A126892F835
:103620002A106F4A525C694B1B6893F82B309A43FF
:103630006B4B5A541A46525C42B9644A126892F86B
:103640002C30664A12789A43644B1A7010BD0023DE
:10365000837200F10B01002204E0002301F8013B1A
:10366000531CDAB2042AF8DB704705E011F8013B7D
:1036700000F8013B531E9AB2002AF7DC70477CB574
:10368000002514E06946284601F070FB064666B93D
:103690004C4850F8254044B1012C06D0D4E9020131
:1036A00000EB8100E06301982064681CC5B21F2D07
:1036B000E8DD7CBD2DE9F84F05460E4617469846D5
:1036C000DDE90BABDDF828900020009001F026FD2D
:1036D000009045480468002C68D054F8140F424903
:1036E0000860009801F01EFD44F8146C2575002058
:1036F000A074E074208244F810AC44F8089C44F8AC
:103700000C7C24F804BC24F8028C6076E810A075C8
:1037100005F007006075A17D012088402076617D5D
:1037200001208840E0750020A060E060E0616062F8
:103730002062A062E0623F2084F83000143C002147
:1037400045200155204600F0A7F8204600F052F829
:1037500001F0E4FC00901B4840F825401E4800683A
:1037600060610020A0611C48006810B11A48006820
:103770008461194804602A34A078184909780843FC
:103780001649087020781649085C6178084314F8D7
:103790002A19134A505415480078401C13490870E0
:1037A000009801F0BFFC0020BDE8F88F009801F000
:1037B000B9FC4220F8E70000590000205300002027
:1037C000520000207C1000206800002060000020D3
:1037D0007C000020700000206C00002054000020BD
:1037E000550000208C060108640000205A000020CB
:1037F00070477047704770477047704770B5044610
:1038000010464FF080750560051F28462C606FF04C
:103810000106051F28462E604FF01236051F284668
:103820002E604FF00336051F28462E604FF00236FB
:10383000051F28462E607610051F28462E60051F9E
:10384000284629604FF01136051F28462E604FF09C
:103850001036051F28462E604FF00936051F2846F2
:103860002E604FF00836051F28462E604FF00736B1
:10387000051F28462E604FF00636051F28462E608D
:103880004FF00536051F28462E604FF00436051F01
:1038900028462E6070BD70477047704730B5164897
:1038A00000684FF47A72B0FBF2F1B1F1807F01D37E
:1038B00001201DE021F07F40401E4FF0E0225061CA
:1038C00050170F22002807DA13071D0E0B4B00F0CC
:1038D0000F04241F1D5503E013071C0E084B1C5436
:1038E00000BF00204FF0E02290610720106100200F
:1038F00008B100BFFEE730BD2400002018ED00E055
:1039000000E400E0174818481848194819481A48B0
:103910001A481B481B481C481C481D481D481E4887
:103920001E481F481F482048204821482148224857
:103930002248234823482448244825482548264827
:1039400026482748274828482848294829482A48F7
:103950002A482B482B482C482C482D482D4800BF7E
:10396000704700008C0701089007010894070108C0
:1039700096070108980701089A0701089C070108A3
:103980009E070108A0070108A2070108A407010873
:10399000A6070108A8070108AA070108AC07010843
:1039A000AE070108B0070108B2070108B407010813
:1039B000B6070108B8070108BA070108BC070108E3
:1039C000BE070108C0070108C2070108C4070108B3
:1039D000C6070108C8070108CA070108CC07010883
:1039E000CE070108D0070108D2070108D407010853
:1039F000D6070108D8070108DA070108DC07010823
:103A0000DE070108E0070108E2070108E4070108F2
:103A1000E6070108E80701082DE9F84F06460F46BA
:103A200090461C46002000900CB9BDE8F88F1EB9E6
:103A3000622020700020F8E706F0030018B1622031
:103A400020700020F1E7022F03D25B2020700020BD
:103A5000EBE7B8F1040F03D25C2020700020E4E70C
:103A600001F05CFB00908B480568006820B1894834
:103A70000068406887490860009801F053FB1DB951
:103A80005A2020700020D0E7B14606EB080A4FF01C
:103A9000000B05E0C9F800A0D146C2440BF1010BB0
:103AA000781E5845F6D80020C9F800002E606E60D8
:103AB0002F61EF60C5F8088020702846B5E72DE932
:103AC000F04104460D46002715B90020BDE8F081FD
:103AD0001CB9602028700020F8E701F01FFB0746A2
:103AE000206960B16668306860602069401E2061AE
:103AF000384601F017FB002028703046E6E73846CC
:103B000001F010FB5D2028700020DFE72DE9F04177
:103B100005460E461446002714B90020BDE8F08182
:103B20001DB9602020700020F8E71EB90C2020701D
:103B30000020F3E758480078002803DD11202070AA
:103B40000020EBE701F0EAFA074605F114013046E0
:103B5000FFF720FA8046384601F0E4FA0020207092
:103B60004046DBE72DE9F04105460E4614464FF08E
:103B700000080CB9BDE8F08115B960202070F9E7A4
:103B800016B90C202070F5E743480078002802DDC4
:103B900012202070EEE701F0C1FA80463046FFF7B0
:103BA00046FA07460F2F05DD404601F0BBFA6320B9
:103BB0002070DFE7314605F11400FFF7EBF94046CE
:103BC00001F0B0FA0020207000BFD3E770B50446C2
:103BD0000D4600260CB9602070BD0DB95F20FBE7D3
:103BE00001F09CFA0646D4E90310884204D330461B
:103BF00001F098FA5E20EFE7606828606560206950
:103C0000401C2061304601F08DFA0020E4E770B5D9
:103C100005460C4600260DB9602070BD0CB9612028
:103C2000FBE701F07BFA0646286820606868606060
:103C3000A868A060E868E06028692061304601F06B
:103C400071FAD4E90301401A60610020E5E770B51C
:103C5000B4211248FFF765FA104C00250DE0681CEE
:103C600000EBC0000D4901EB800060603F20207533
:103C7000002161752434681C85B2042DEFDB00201F
:103C800060603F202075002161750448014908608B
:103C900070BD00007400002050000020901600202D
:103CA0002DE9F04106460D464FF0000815B90020F9
:103CB000BDE8F0811EB9042028700020F8E73078B4
:103CC000022803D0012028700020F1E701F026FA35
:103CD00080467468E08A00280FDD2169081D206194
:103CE0000F68E08A401EE082A1682069884201D105
:103CF000606820610020287002E01F2028700027E3
:103D0000404601F00FFA3846D2E72DE9F041064669
:103D10000F464FF00008FE480078002802DD002022
:103D2000BDE8F08101F0FAF98046FA4804680068BD
:103D300020B1F84800684068F6490860404601F044
:103D4000F1F90CB301F0EAF98046F3480568E5B1F2
:103D500000680068F0490860404601F0E3F96E60D1
:103D600006EB8700A860EE602E61AF820020E8823B
:103D7000022020700020208165603F20E073002138
:103D800021742046FFF763FC08E0E24800686060A9
:103D9000E0480460404601F0C5F900242046BFE732
:103DA0002DE9F0470446894615464FF0000A15B93B
:103DB0002046BDE8F0871CB9042028702046F8E7AB
:103DC0002078022803D0012028702046F1E7D0484F
:103DD0000078002803DD0F2028702046E9E701F075
:103DE0009DF98246A07A10B14FF0010801E04FF032
:103DF0000008B9F1000F03D0B9F1010F4DD123E054
:103E0000B8F1000F19D13F20E073002121746668DA
:103E1000C14800683060C048066000202070BD487E
:103E20000068606000202081BA480460504601F0BC
:103E300079F900202870002705E0504601F072F95A
:103E40004920287027462FE005E000230422194668
:103E50002046FFF78BFBA07A0028F6D13F20E073C5
:103E6000002121746668AC4800683060AA4806608A
:103E700000202070A7480068606000202081A548CD
:103E80000460504601F04EF9B8F1010F01D1FFF77F
:103E900048FA00202870002706E0504601F042F959
:103EA00007202870274600BF00BF384681E770B55D
:103EB000054600260DB9042070BD2878022801D0DF
:103EC0000120F9E701F02AF906466C686068E060B5
:103ED000606820610020E082304601F023F9002074
:103EE000EAE72DE9F0470646884615464FF00009F7
:103EF00015B90020BDE8F0871EB904202870002005
:103F0000F8E73078022803D0012028700020F1E77C
:103F10007F480078002803DD022028700020E9E7B0
:103F20007E480078002803DD0D2028700020E1E79E
:103F300001F0F4F881467468E08A002813DD2169F5
:103F4000081D20610F68E08A401EE082A168206998
:103F5000884201D160682061484601F0E3F8002002
:103F600028703846C6E76E48006890F8260040F092
:103F700004006B49096881F8260000206849096837
:103F800081F8270066480068A0F824803046FFF7D3
:103F900026FB484601F0C6F8FFF7C3F901F0BEF86A
:103FA00081465F48006890F8270020B101280DD0B5
:103FB00002280AD105E05A480068076A00202870E4
:103FC0000DE000270E20287009E000BF314654485C
:103FD0000068FFF7B6FA00270A20287000BF00BF6C
:103FE00000204F49096881F826004D49096881F889
:103FF00027004B490968C861494909680862484671
:1040000001F090F8384675E72DE9F04105460F4676
:1040100014464FF0000814B90020BDE8F0811DB926
:10402000042020700020F8E72878022803D001201F
:1040300020700020F1E701F071F88046A87A20B3E3
:1040400000267FB1012F0CD107E0022304220021BA
:104050002846FFF78BFA701CC6B2A87A0028F4D164
:1040600009E000BF0223042200212846FFF77EFA60
:10407000701CC6B200BF00BF404601F053F8FFF706
:1040800050F90E2020703046C7E7404601F04AF84C
:104090000020207000BFC0E72DE9F04105460E4624
:1040A000002715B90420BDE8F0812878022801D046
:1040B0000120F8E701F032F80746A87A60B1002342
:1040C000042231462846FFF751FA384601F02AF813
:1040D000FFF727F90020E6E76C68E08AA18A8842AA
:1040E00004DB384601F01EF81E20DCE7E168081DFD
:1040F000E0600E60E08A401CE082D4E90210884251
:1041000001D16068E060384601F00CF80020CAE791
:10411000500000204C0000207800002051000020BA
:10412000600000202DE9F04105460E46002715B934
:104130000420BDE8F0812878022801D00120F8E7AA
:1041400000F0ECFF0746A87A60B100230422314654
:104150002846FFF70BFA384600F0E4FFFFF7E1F8D6
:104160000020E6E76C68E08AA18A884204DB3846D2
:1041700000F0D8FF1E20DCE761682069884201D189
:10418000A06820612069001F206120690660E08A24
:10419000401CE082384600F0C5FF0020C9E72DE949
:1041A000F04105460F4616464FF0000815B90420A9
:1041B000BDE8F0812878022801D00120F8E700F05E
:1041C000ADFF8046A87AE8B106F0010050B105E0E5
:1041D0000023042239462846FFF7C8F9A87A0028A8
:1041E000F6D105E00023042239462846FFF7BEF940
:1041F000404600F097FF06F0040008B9FFF791F879
:104200000020D5E76C68E08AA18A884204DB40463A
:1042100000F088FF1E20CBE706F0020058B161686D
:104220002069884201D1A06820612069001F2061B7
:104230002069076009E0E168081DE0600F60D4E9CB
:104240000210884201D16068E060E08A401CE08290
:10425000404600F067FF0020AAE72DE9F047054639
:104260000C464FF0000A15B90420BDE8F0870CB9E0
:104270000920FAE72878022801D00120F5E700F0AC
:104280004DFF8246A87A207305F10B0804F1080956
:10429000002705E018F8010B09F8010B781CC7B2DC
:1042A000042FF7DB6E68F08A002803DD30690068B0
:1042B000206001E000202060F08AA080B08AE080C9
:1042C000504600F02FFF0020CFE770B54FF4C071CB
:1042D0000A48FEF726FF094C04F11806002504E001
:1042E000266018341836681C85B20F2DF8DB0020C4
:1042F000206002480249086070BD00004417002099
:104300007800002070B5044600260CB9002070BD6E
:104310002078032801D00020F9E700F0FFFE0646D0
:104320002589002D02DD2089401E2081304600F0C5
:10433000F9FE2846EBE770B505460026EF48007801
:10434000002801DD002070BD00F0E8FE0646EC48C4
:104350000468006820B1EA4800684068E8490860DD
:10436000304600F0DFFE5CB1032020702581002084
:1043700060603F20E073002121742046FFF767F959
:104380002046E0E72DE9F0470446884615464FF001
:10439000000915B92046BDE8F0871CB90420287033
:1043A0002046F8E72078032803D001202870204613
:1043B000F1E7D2480078002803DD0F20287020465E
:1043C000E9E700F0ABFE8146A07A08B1012700E0E2
:1043D0000027B8F1000F03D0B8F1010F3ED11BE068
:1043E0009FB93F20E0730021217400202070C44851
:1043F0000068606000202081C1480460484600F0E9
:1044000091FE00202870002605E0484600F08AFE54
:1044100049202870264628E005E00023012219469D
:104420002046FFF7A3F8A07A0028F6D13F20E073DA
:104430000021217400202070B148006860600020D5
:104440002081AF480460484600F06CFE012F01D186
:10445000FEF767FF00202870002606E0484600F0BF
:1044600061FE07202870264600BF00BF304692E755
:104470002DE9F04105460E46144600270CB9BDE86B
:10448000F08115B904202070F9E72878032802D0BC
:1044900001202070F3E799480078002802DD02200F
:1044A0002070ECE797480078002802DD0D2020708E
:1044B000E5E700F033FE07462889002808DD288953
:1044C000401E2881384600F02DFE00202070D6E7DF
:1044D0008D48006890F8260040F001008A4909687C
:1044E00081F8260000208849096881F8270086485D
:1044F000006886842846FFF772F8384600F012FEFE
:10450000FEF70FFF00F00AFE07467F48006890F8AC
:10451000270020B1012809D0022806D102E000209E
:1045200020700BE00E20207008E000BF294676487E
:104530000068FFF706F80A20207000BF00BF0020C7
:104540007149096881F826006F49096881F82700D8
:104550006D490968C861384600F0E4FD00BF8EE788
:104560002DE9F04105460F4614464FF0000814B9F6
:104570000020BDE8F0811DB9042020700020F8E77C
:104580002878032803D0012020700020F1E700F0F4
:10459000C5FD8046A87A20B300267FB1012F0CD13B
:1045A00007E00223012200212846FEF7DFFF701CEE
:1045B000C6B2A87A0028F4D109E000BF0223012284
:1045C00000212846FEF7D2FF701CC6B200BF00BF14
:1045D000404600F0A7FDFEF7A4FE0E2020703046F6
:1045E000C7E7404600F09EFD0020207000BFC0E7F6
:1045F00070B5044600250CB9042070BD207803284E
:1046000001D00120F9E700F089FD0546A07A60B1EC
:104610000023012219462046FEF7A8FF284600F095
:1046200081FDFEF77EFE0020E7E720894FF6FF714F
:10463000884207D22089401C2081284600F072FD64
:104640000020DAE7284600F06DFD3220D5E72DE99D
:10465000F04704460D464FF0000914B90420BDE8A8
:10466000F0870DB90920FAE72078032801D001204E
:10467000F5E700F053FD8146A07AA87104F10B071D
:10468000AE1C4FF0000807E017F8010B06F8010B0D
:1046900008F1010000F0FF08B8F1040FF4DB2089F5
:1046A0002880484600F03EFD0020D8E72DE9F04183
:1046B00004460E46154600270DB9BDE8F08114B931
:1046C00004202870F9E72078032802D00120287000
:1046D000F3E700F023FD074600202870208900281A
:1046E00001DD268105E0A07A08B9268101E0492094
:1046F0002870384600F016FD00BFDEE750000020AD
:104700004C00002051000020600000202DE9FF5FD8
:1047100081460F4600200090B9F11F0F06DBB9F16A
:10472000FF0F03D02A2004B0BDE8F09F1F2F01DB4C
:104730002A20F8E700F0F2FC0090F84850F8270033
:1047400020B1009800F0EEFC2820ECE7B9F1FF0F53
:1047500003D1F348006890F82890F04850F82940B9
:1047600024B9009800F0DEFC2920DCE7012C04D1FC
:10477000009800F0D7FC4320D5E74FEAE70807F0A0
:1047800007000390012000FA08F000F0FF0A012161
:104790000398814001F0FF0B0020E04941F8290017
:1047A000084640F8274014F82A6FA07802906078F5
:1047B0002A3C0190DB48815D01980140E1B1D94874
:1047C000805D01998843D74988550846805D28B99E
:1047D000D548007802998843D3490870D2480078B8
:1047E00040EA0A00D0490870CE4810F8080040EAB4
:1047F0000B00CC4901F80800E569E5B105F10B00B3
:10480000805D0199884305F10B0188550846805D5C
:1048100018B9A87A02998843A872A87A40EA0A00CF
:10482000A87205F10B0010F8080040EA0B0005F132
:104830000B0101F8080084F8287084F82A80039896
:1048400084F8290084F82CA084F82BB0009800F09C
:1048500069FCB6480078012801D1FEF762FD00200E
:1048600061E72DE9FE4F06460F4690461C464FF085
:1048700000091F2C02DD2A20BDE8FE8F00F04EFC4F
:104880008146AB480078002804DD484600F04AFC29
:104890003C20F1E7A14850F8240060BB01209F496B
:1048A00041F82400484600F03DFC002342463946CA
:1048B0003046FEF7A3FF8246002000900190034699
:1048C0000246514602902046FEF7F4FE054635B9F1
:1048D0009648007801280CD1FEF723FD09E000F08E
:1048E0001DFC814600208D4941F82400484600F017
:1048F00019FC2846C0E7484600F014FC2820BBE716
:1049000002F0010343B102F002032BB102E0491EA1
:10491000002308C00029FAD170472DE9F04F85B077
:1049200081468A4693461C46DDE90F78129D002099
:1049300003901F2C03DD2A2005B0BDE8F08F00F0A6
:10494000EDFB03907A480078002804DD039800F01E
:10495000E9FB3C20F0E7714850F8240088BB0120B7
:104960006E4941F82400039800F0DCFB2A464146DA
:104970003846FFF7C5FF2B465A4651464846FEF7D4
:104980003DFF04901198CDE9008002953A462046FB
:104990000E9B0499FEF78EFE064636B963480078F2
:1049A00001280CD1FEF7BDFC09E000F0B7FB039035
:1049B00000205A4941F82400039800F0B3FB304628
:1049C000BAE7FFE7039800F0ADFB2820B4E770B525
:1049D0000546002656480078002801DD402070BDBD
:1049E0001F2D01D13E20FAE71F2D03DBFF2D01D043
:1049F0002A20F4E700F092FB0646FF2D03D1484839
:104A0000006890F82850454850F8254024B93046B1
:104A100000F088FB4320E2E7012C04D1304600F08F
:104A200081FB3D20DBE714F82A0F3E49085C6178E2
:104A3000884321783B4A505414F82A091146085CEF
:104A400030B994F82C1038480078884336490870FB
:104A5000E06918B12046E169FEF773FD0020A084EB
:104A600084F8260084F8270032480078FF2804D212
:104A700030480078401C2F490870304600F052FB47
:104A8000FEF75EFD00F04AFB06462A480078002843
:104A900004DD28480078401E264908702046FEF7AD
:104AA000AAFE25480078401E2349087000201B49B3
:104AB00041F82500A06930B90020616988611F496B
:104AC0006069086005E0D4E905014861D4E9051092
:104AD00088611B4800686061194804603F2084F8C1
:104AE0004400002145200155304600F01BFB0F48D3
:104AF0000078012801D1FEF714FC00206FE72DE9B2
:104B0000F041044600271F2C02D13E20BDE8F08171
:104B10001F2C17DBFF2C15D02A20F7E77C10002074
:104B200060000020550000205400002059000020A3
:104B300050000020510000205A0000206C0000208E
:104B400064000020FF2C0BD100F0E8FA0746F14882
:104B5000006890F82D60384600F0E4FA3046D5E75A
:104B600000F0DCFA0746EC4850F8245025B93846E6
:104B700000F0D8FA4320C9E7012D04D1384600F0EF
:104B8000D1FA3D20C2E73F2085F82D00384600F0DD
:104B9000C9FA0020BAE72DE9F04705460F4614464A
:104BA0004FF0000814B90020BDE8F0871F2D05DD87
:104BB000FF2D03D02A2020700020F5E71FB90C201C
:104BC00020700020F0E7D5480078002803DD112090
:104BD00020700020E8E700F0A1FA8046FF2D03D105
:104BE000CC48006890F82850CB4850F8256036B97A
:104BF000404600F097FA432020700020D4E7012EB1
:104C000006D1404600F08EFA432020700020CBE70A
:104C100006F144013846FEF7BDF98146404600F0F2
:104C200081FA002020704846BEE72DE9F04705468E
:104C30000F4614464FF000090CB9BDE8F0871F2D50
:104C400004DDFF2D02D02A202070F6E717B90C20D2
:104C50002070F2E7B1480078002802DD12202070B1
:104C6000EBE700F05BFA8146FF2D03D1A94800680D
:104C700090F82850A84850F825602EB9484600F012
:104C800051FA43202070D8E7012E05D1484600F0A4
:104C900049FA43202070D0E73846FEF7C8F980462D
:104CA000B8F10F0F05DD484600F03CFA41202070B6
:104CB000C3E7394606F14400FEF76CF9484600F0B8
:104CC00031FA0020207000BFB7E770B50546002616
:104CD0001F2D01DB2A2070BD00F020FA06468E4809
:104CE00050F8254024B9304600F01CFA4620F2E77F
:104CF000012C04D1304600F015FA4320EBE794F87C
:104D0000260000F0080060B314F8260F20F0080019
:104D1000207014F82609F8B9A08CC8B92A34A078F4
:104D20007F49097808437E49087020787D49085CEE
:104D30006178084314F82A197A4A5054304600F032
:104D4000F1F979480078012809D1FEF7EAFA06E07E
:104D5000304600F0E7F902E0304600F0E3F90020C9
:104D6000B9E7304600F0DEF94420B4E72DE9F0471A
:104D700006460C464FF0000A1F2E04DDFF2E02D01F
:104D80002A20BDE8F0870CB90920FAE7002020604E
:104D9000606000F0C3F98246FF2E03D15D480068D1
:104DA00090F828605C4850F8265025B9504600F02D
:104DB000B9F94320E5E7012D04D1504600F0B2F9DE
:104DC0004320DEE7287C00F0010020B9504600F0C7
:104DD000A9F94520D5E70027D5F80C90D5F808802B
:104DE000504600F09FF900E07F1C58F8041B002992
:104DF000FAD0B8002060A9EB0700800060600020B6
:104E0000BFE72DE9F04105464FF000081F2D02D104
:104E10004720BDE8F0811F2D03DBFF2D01D02A20A4
:104E2000F7E700F07BF98046FF2D05D1394800688F
:104E300090F82850012608E03648006890F82800CD
:104E4000A84201D1012600E00026334850F8254051
:104E500024B9404600F066F94820DAE7012C04D175
:104E6000404600F05FF94320D3E794F82A702D48BC
:104E7000C05D94F82B1088432A49C8550846C05D88
:104E800030B994F82C1026480078884324490870DB
:104E900094F8260040F0080084F82600404600F010
:104EA00041F9012E01D1FEF73CFA0020B1E72DE9CE
:104EB000F04104460E4600271F2C04DDFF2C02D0D3
:104EC0002A20BDE8F0810EB90920FAE700F026F9A2
:104ED0000746FF2C03D10F48006890F828400E4881
:104EE00050F8245025B9384600F01CF92920E8E78D
:104EF000012D04D1384600F015F94320E1E7542292
:104F000029463046FEF7B1FB384600F00BF9002089
:104F1000D7E70000600000207C1000205000002037
:104F200054000020550000205900002070B50546AF
:104F3000002674480078002800DD70BD002D23DDB8
:104F400000F0ECF806467048006890F82A406F4878
:104F5000005D6D49096891F82B1088436B4908552D
:104F60000846005D40B96848006890F82C10684811
:104F70000078884366490870634800688584304635
:104F800000F0D0F8FEF7CDF900BFD6E72DE9F047E5
:104F900080460D4616461C465A480078002802DD19
:104FA0005520BDE8F087B8F1000F04D11DB916B93E
:104FB0000CB95420F5E73B2D01DD5120F1E73B2EE4
:104FC00001DD5220EDE7B4F57A7F01DB5320E8E7FD
:104FD0004FF47A7060434FF47A71B0FBF1F14FF403
:104FE000616008FB00F0C5EB051200EB8200304465
:104FF00000EB4002C2EBC01001EBC0074FEA1749BB
:10500000BFB23846FFF792FF0BE04FF40040FFF7C6
:105010008DFF4FF40040FFF789FFA9F101001FFA4F
:1050200080F9B9F1000FF0DC0020BAE770B5054651
:1050300000261F2D01DB2A2070BD00F06FF8064608
:10504000344850F8254024B9304600F06BF843202E
:10505000F2E7012C04D1304600F064F84320EBE77E
:10506000A08C20B9304600F05DF85020E4E7002025
:10507000A08494F8260000F0370040B114F8260F01
:1050800020F03700207001206070263C02E00020F4
:1050900084F8270094F8260000F00800A8B92A3404
:1050A000A0781B49097808431949087020781749E6
:1050B000085C6178084314F82A19144A50543046A1
:1050C00000F030F8FEF72DF902E0304600F02AF843
:1050D0000020B1E770B5002500F020F805460E4825
:1050E0000468284600F01EF8204670BD70B50446DE
:1050F000002500F013F8054607480460284600F034
:1051000011F870BD50000020600000205500002004
:10511000540000207C1000207C000020EFF3108061
:1051200072B6704780F3108870471D484FF0FF013A
:105130000170002080F309881A48012101701A4883
:105140004FF08051016062B6FEE717484FF0805182
:105150000160704714484FF080510160704772B68B
:10516000EFF3098028B1203880E8F00F0F49096873
:10517000086000B50E4880475DF804EB0D480E4905
:105180000A78027009480D490A680260106890E8C0
:10519000F00F203080F309884EF0040E62B670479D
:1051A00022ED00E05900002004ED00E06000002046
:1051B00097380008520000205300002068000020AB
:1051C00010B504462078B249087060784870A0781D
:1051D0008870E078C870207908716079487121463C
:1051E0000020FDF7DCF910BD70B50446062084F8F8
:1051F0002000A748007884F82100A54841782220A3
:105200000155A348817823200155A148C178242065
:1052100001559F480179252001559D484179262057
:10522000015540F2DC502085322084F82A00022209
:1052300098499948FDF71CFA042298499848FDF7C7
:10524000C2FA002506E0964901EB05100121FDF7A1
:1052500019FB6D1C042DF6DB002507E08E4901EBE0
:1052600005104FF44001FDF76CFA6D1C022DF5DBC3
:10527000FDF723F870BD01468A480068006800F019
:10528000004008B100207047C1F30C00854A126845
:10529000506084480068006840F04050814A1268BD
:1052A000106080480068006840F000407D4A126845
:1052B00010607D48406900F0040020B104207A4A63
:1052C00050610020506077480068C068754A1060DF
:1052D0000120D8E773480068806870472DE9F041E5
:1052E00080460E460025FFF7F5FF0746344607E0E7
:1052F0006289781961680AF055FF6089054424685D
:10530000002CF5D1A8B2FFF7B6FF0020BDE8F08170
:105310001EB500210022009201920292634A126897
:10532000126802F0004282B1002200925E4A526985
:1053300002F0800222B180225B4B5A6100229A6007
:105340009DE81C0080E81C001EBD584A12681288A7
:1053500002F40042B2B9554A1268128802F480720F
:1053600082B1524A1268128802F4007252B14F4A56
:1053700012681268C2F30D42111F4C4A12689268FB
:10538000019200E000210091484A12680292474AC7
:105390001268D268454B1A609DE81C0080E81C002A
:1053A00000BFD1E72DE9F04387B0814600260025F4
:1053B00001A8FFF7ADFF01A807C804AB07C3049815
:1053C00087B2DDF8148003223946104605F025FB2C
:1053D000054665B12C4608E0628908EB0601606865
:1053E0000AF0E0FE608906442468002CF4D14FF0F6
:1053F0000040069908602C48406900F0800020B108
:1054000080202949486100208860284607B0BDE80F
:10541000F08370B504462046FFF7C4FF064616B970
:105420004FF0FF3070BD2146304622699047054657
:105430001DB1304605F090FA00262846F2E770B517
:10544000044600BF44B900BF19A34FF4A17220A1C4
:1054500023A00AF067FF00BF00BF082004F0C2FECF
:10546000054615B94FF0FF3070BDE561732084F833
:105470002B0074212C200155234860612348A06132
:1054800004F1210028602046FFF7AEFE0020EBE784
:1054900088000020E4300020041900202419002096
:1054A000C418002038000020009002403C0000207A
:1054B0002E2E5C7372635C4C7749505C706F727413
:1054C0005C65746865726E657469662E63000000C1
:1054D0006E6574696620213D204E554C4C000000DD
:1054E000417373657274696F6E2022257322206682
:1054F00061696C6564206174206C696E6520256447
:1055000020696E2025730A00F5FF0008DD520008AF
:1055100070B505462846FEF70EFF044600BF3CB9AD
:1055200000BFDBA32522E1A1E4A00AF0FBFE00BF3F
:1055300000BF204670BD70B504462046FFF758F8FE
:10554000054670BD38B504466A4601212046FEF77F
:1055500019FF00BF9DF8000038B100BFCCA3402266
:10556000E0A1D6A00AF0DEFE00BF00BF38BDF8B54E
:1055700007460C467CB14FF47A7060434FF47A7161
:10558000B0FBF1F60EB9012606E0B6F5803F03D96F
:105590004FF6FF7600E00026FFF79CFD0446B1B20F
:1055A0006A463846FEF764FF9DF800000A2802D1DB
:1055B0004FF0FF3411E0FFF78DFD0546A54201D302
:1055C0002D1B02E0C4F1FF3005444FF47A706843AC
:1055D0004FF47A71B0FBF1F0441C2046F8BD38B5A9
:1055E00005466946C2480068FEF769FA044600BFEE
:1055F0009DF8000038B100BFA5A38522BDA1AFA0D2
:105600000AF090FE00BF00BF9DF8000000281FD1E7
:10561000142D00DD1425A9B2201DFEF776FB2060B5
:1056200000BF206838B900BF99A38D22B4A1A3A000
:105630000AF078FE00BF00BF206808B1204638BDE0
:105640002146AB480068FEF7C1FA00900020F6E75B
:105650000020F4E738B5044600BF3CB900BF8CA376
:105660009F22AAA195A00AF05DFE00BF00BF20689E
:10567000FEF71DFC6A4600212068FEF791FB00BF83
:105680009DF8000038B100BF81A3A622A3A18BA082
:105690000AF048FE00BF00BF214695480068FEF7AB
:1056A00095FA009000BF9DF8000038B100BF78A3C4
:1056B000AA229CA181A00AF035FE00BF00BF38BD20
:1056C0002DE9F04104460D46002605B9984D04E049
:1056D000701CC6B20520FFF729FC0A2E05DA294600
:1056E0002068FEF7D9FC071EF2D1BDE8F08170B545
:1056F00004460D4605B98E4D29462068FEF7CCFCC0
:10570000061E02D04FF0FF3070BD0020FCE72DE9EF
:10571000F84381460F4614467CB14FF47A706043DB
:105720004FF47A71B0FBF1F60EB9012606E0B6F53A
:10573000803F03D34FF6FF7600E00026FFF7CAFC58
:105740000446B1B26A46D9F80000FEF7CAFB8046AB
:105750003FB17748804502D10020386001E0C7F8AA
:1057600000809DF800000A2802D14FF0FF341FE0AE
:1057700000BF9DF8000040B100BF45A340F20112F8
:105780006CA14EA00AF0CEFD00BF00BFFFF7A2FC47
:105790000546A54201D92D1B02E0C4F1FF300544A6
:1057A0004FF47A7068434FF47A71B0FBF1F0441C07
:1057B0002046BDE8F88338B5614921F003006B4607
:1057C00054220A21FEF728F94949086000BF9DF8D4
:1057D000000040B100BF2EA34FF48F7259A137A033
:1057E0000AF0A0FD00BF00BF002405E000205949D9
:1057F00041F82400601CC4B2032CF7DB38BD30B57F
:1058000095B00020544908606946FF20FFF74FFB20
:105810009DF82850A5F10A0044B2002C06DB032CA9
:1058200004DA4C4800EB840015B030BD4A48FBE771
:105830002DE9F8430746884615461E46089C4FF05A
:10584000000900BF002C1FDD032C1DDC04F1090042
:1058500000F0FF09B6F5967F01DD4FF49676601EE5
:10586000C0EB001000EB80003C4901EB0011701E02
:1058700001EB80024B4629464046FEF7F2FF6A469E
:1058800039464846FFF7D1F94846BDE8F88300009D
:105890002E2E5C7372635C4C7749505C706F72742F
:1058A0005C7379735F617263682E63004F53536555
:1058B0006D4372656174652000000000417373657B
:1058C0007274696F6E2022257322206661696C658F
:1058D00064206174206C696E6520256420696E20E7
:1058E00025730A004F5353656D44656C200000001A
:1058F000940000204F534D656D47657420000000F3
:105900004F53514372656174652000007379735F72
:105910006D626F785F667265652000004F53514479
:10592000656C20004F534D656D507574200000006C
:10593000EC0701084F535150656E642000000000D1
:10594000D74A00204F534D656D43726561746520E1
:1059500000000000204E002098000020C43C0020E1
:10596000F0B585B007460D4616463146384600F07C
:10597000AEFF0446002C47D0E84800908DF8085050
:105980000194684603F058F8207A00283CD000BF04
:10599000606838B100BFE2A35122E9A1F1A00AF08A
:1059A000C1FC00BF00BF00BFE06838B900BFDCA386
:1059B0005222F6A1EBA00AF0B5FC00BF00BF00BF69
:1059C000206938B900BFD6A35322F7A1E5A00AF099
:1059D000A9FC00BF00BF00BF606938B100BFD0A301
:1059E0005422F7A1DFA00AF09DFC00BF00BFE068D1
:1059F000FFF7A8FD2069FFF72DFE2146072004F0E0
:105A00002FFE002005B0F0BD2046FBE710B586B0A4
:105A1000044614B9002006B010BDF248019002946B
:105A200001A803F009F800206060204600F004FFA0
:105A30000020F0E7F0B585B004460D4616461F4637
:105A400000BF5CB900BFB6A38A22E7A1C5A00AF0D7
:105A500069FC00BF6FF0090005B0F0BD00BF00BFDA
:105A600055B900BFAEA38B22E7A1BEA00AF05AFC35
:105A700000BF6FF00900EFE700BF00BF56B900BFDD
:105A8000A7A38C22E8A1B7A00AF04CFC00BF6FF0DE
:105A90000900E1E700BFEC480090019402950396ED
:105AA0008DF81070684602F0C7FF94F90800D3E73C
:105AB00070B586B004460D46164600BF5CB900BFFF
:105AC00097A3A722E1A1A7A00AF02CFC00BF6FF0CA
:105AD000090006B070BD00BFE34801900294039531
