:020000040800F2
:10000000E8ED002065010008CD100008D10F0008C0
:10001000C9100008E1050008912E0008000000004A
:10002000000000000000000000000000252B000878
:10003000F705000800000000CB0100085D2C000857
:10004000952E0008BB280008512D00081F2B000822
:10005000190E0008E92A0008690D00086D0D000856
:100060006F0D0008710D0008730D0008E905000808
:10007000EB050008ED050008EF050008F105000894
:10008000F3050008F5050008C50200087F01000817
:100090007F010008E5050008E7050008750D000868
:1000A000532D0008592D0008572D0008552D000824
:1000B0005B2D00085D2D00085F2D0008D70F00089C
:1000C000D50F0008DB0F0008D90F0008212B00080E
:1000D000232B00086F2D0008712D0008732D0008D8
:1000E0006B0D00081D2B00087F01000800000000B8
:1000F0000000000000000000000000000000000000
:1001000000000000000000007F0100087F010008DF
:100110007F0100087F0100087F0100087F010008BF
:100120007F0100087F0100087F0100087F010008AF
:100130007F010008E10700087F0100087F01000837
:100140007F0100087F0100087F0100087F0100088F
:10015000DFF80CD000F0A4F800480047CD510008AB
:10016000E8ED00200648804706480047FEE7FEE726
:10017000FEE7FEE7FEE7FEE7FEE7FEE7FEE7FEE757
:10018000E52C000851010008EFF3108072B67047AB
:1001900080F3108870471D484FF0FF010170002068
:1001A00080F309881A48012101701A484FF08051E4
:1001B000016062B6FEE717484FF08051016070475A
:1001C00014484FF080510160704772B6EFF3098018
:1001D00028B1203880E8F00F0F490968086000B5A1
:1001E0000E4880475DF804EB0D480E490A7802700E
:1001F00009480D490A680260106890E8F00F203045
:1002000080F309884EF0040E62B6704722ED00E0DC
:100210005600002004ED00E05C000020A51F00084F
:100220004F000020500000206400002040EA01033D
:100230009B0703D009E008C9121F08C0042AFAD29C
:1002400003E011F8013B00F8013B521EF9D2704760
:10025000D2B201E000F8012B491EFBD27047002208
:10026000F6E710B513460A4604461946FFF7F0FFB5
:10027000204610BD30B50B46014600202022012447
:1002800009E021FA02F59D4205D303FA02F5491B64
:1002900004FA02F52844151EA2F10102F1DC30BD7A
:1002A000064C074D06E0E06840F0010394E80700C3
:1002B00098471034AC42F6D3FFF74EFF80AB0008EE
:1002C000A0AB00087047000008B50823084A0021C9
:1002D000084801F077FB0923074A0021074801F08D
:1002E00071FB6A4606A1082001F0D2FC08BD00009F
:1002F0005405002059030008540700206D0300082E
:1003000075432F4F532D4949204C454400000000B0
:1003100010B5044600F0C6F802F0B4FC05A002F0E7
:10032000BBFD00F05BFEFFF7CFFFFF2001F002FCFA
:1003300010BD00000D0A2075432F4F532D49492051
:100340005573617274204D736751756575652044EE
:10035000656D6F200D0A000007E000F0D1F8002362
:1003600001221946184601F057FEF6E708E000F0B2
:10037000A5F84FF4FA7300221146104601F04CFE26
:10038000F5E7000008B501214FF4E03002F096FADD
:1003900001217D2002F0B2FA0420ADF80000032014
:1003A0008DF8020018208DF803006946394800F0E6
:1003B0003BFD0620ADF8000003208DF80200182058
:1003C0008DF803006946344800F02EFD43F62010F6
:1003D000ADF8000003208DF8020018208DF803000E
:1003E00069462E4800F020FD01214FF0201000F05A
:1003F000A5FD0B20ADF8000003208DF802000420BD
:100400008DF803006946234800F00EFD4FF480602C
:10041000ADF8000003208DF8020004208DF80300E1
:1004200069461E4800F000FD0820ADF800000320DA
:100430008DF8020004208DF803006946164800F08C
:10044000F3FC4FF4F850ADF8000003208DF80200E3
:1004500004208DF803006946114800F0E5FC1020E7
:10046000ADF8000000208DF8030069460A4800F04E
:10047000DBFC4FF48070ADF8000003208DF8020023
:1004800018208DF803006946024800F0CDFC00F00A
:1004900073FC08BD0008014000100140000C014041
:1004A0000014014010B502F01DFC00F00FF800F040
:1004B00049F8FFF767FF00F02BF810BD0249086804
:1004C00080F01000086070470C14014008B501214D
:1004D000202002F013FA1420ADF8000003208DF85C
:1004E000020010208DF803006946044800F09CFCCF
:1004F0001421024800F06AFD08BD0000001401400C
:100500000249086880F00400086070470C1401403C
:1005100008B500214FF0006000F01EFE4FF4A0600F
:1005200000F010FE3D208DF8000002208DF8010043
:1005300000208DF8020001208DF80300684600F0CD
:10054000C7FD08BD00B587B0012144F2050002F0E7
:10055000D5F94FF40070ADF8180003208DF81A009B
:1005600018208DF81B0006A91B4800F05DFC4FF415
:100570008060ADF8180004208DF81B0006A916480D
:1005800000F052FC4FF4E13002900020ADF80C0076
:10059000ADF80E00ADF81000ADF814000C20ADF869
:1005A00012000020ADF80000ADF802004FF400701A
:1005B000ADF804000020ADF806006946074802F0D7
:1005C000D9FB02A9054802F0F3FB0121034802F020
:1005D000E2FB07B000BD0000000801400038014008
:1005E00000BFFEE77047704770477047704770471D
:1005F0007047704770477047014948617047000075
:100600000090024029B1064AD2690243044BDA61E4
:1006100004E0034AD2698243014BDA61704700006B
:100620000090024030B10749896941F00201054A52
:10063000916105E00349896921F00201014A916154
:10064000704700000090024030B50C461346002170
:10065000104D286000BF18E000EB01124FF000457C
:10066000156044F2F0555560C1EB411505EB81155D
:1006700004EB051595605D1E8D4204D900EB011554
:100680001035D56000E0D060491C9942E4D3024D9A
:10069000E86030BD2C0000200090024021B142688B
:1006A00022F00042426003E0426842F000424260B1
:1006B0007047000030B10749896941F40051054A8B
:1006C000916105E00349896921F40051014A916172
:1006D000704700000090024030B50C4613460021E0
:1006E0000F4D286000BF15E000EB01124FF480159C
:1006F0001560C1EB411505EB811504EB05159560FF
:100700005D1E8D4204D900EB01151035D56000E067
:10071000D060491C9942E7D3024D286130BD0000EA
:10072000280000200090024002680A4302607047DF
:1007300010B50121880302F0D1F800214FF4804068
:1007400002F0CCF810BD0021014600E0491E00294E
:10075000FCD170470348806940F4801001498861EA
:1007600070470000009002400148006880687047B0
:100770002800002001460868C0F30D4070470000C3
:1007800000B500220F480068006810F0004F16D135
:100790000C480068008810F4004F10D10948006828
:1007A000008810F4807F0AD006480068008810F4A2
:1007B000007F04D003480068FFF7DCFF02461046C4
:1007C00000BD00002C00002000200449096811F041
:1007D000010F01D0012000E000207047009002408E
:1007E00010B501E000F068FCFFF7CAFF0028F9D15E
:1007F0004020FFF701FF4FF48030FFF7FDFE10BDF2
:100800002DE9F04786B0044688464FF000090025E0
:10081000AA46864F00268648056925F01C0501A8D2
:1008200002F07CF8029F8348874205D382488742C2
:1008300002D245F0080509E07F48874205D37B488E
:10084000874202D245F00C0500E000BF7848056100
:100850004FF400420021404600F056FA18B900203B
:1008600006B0BDE8F0877548FFF76DFF20680028E7
:1008700044D000BF761C0121404600F027F910F05B
:10088000040F02D16E488642F4D36D48864201D1EE
:100890000020E5E700264FF480520021404600F09A
:1008A00033FA08B90020DBE700BF761C012140467F
:1008B00000F00CF910F0200F02D161488642F4D309
:1008C0005F48864201D10020CAE700261021404639
:1008D00000F0FCF8814619F0040F03D04FF40060DB
:1008E000206201E00020206219F0020F02D00020F7
:1008F000606116E04FF48040606112E0206AC0F34E
:10090000CF006169C1F34F0140EA01020021404676
:1009100000F0FAF908B90020A2E76FF07F40FFF776
:1009200012FF4348056847480540D4E901010843E0
:10093000E16808432169084361690843A1690843E4
:10094000E1690843216A0843616A0843A16A0843D0
:10095000E16A0843216B0843616B0843054334484F
:100960000560D4E90E010843216C0843616C08431B
:10097000A16C0843E16C0843216D0843616D084395
:100980002B494860A06D8860E06DC86008468569A5
:100990004FF641700540B4F86010606E40EA0140C7
:1009A000A16E0843E16E0843216F0843616F08435D
:1009B00005431F488561D4E91E0108431C49C861ED
:1009C0002148856921480540D4E920010843D4F82D
:1009D00088100843D4F88C100843D4F890100843CA
:1009E000D4F894100843D4F898100843D4F89C1015
:1009F0000843D4F8A0100843054313488561D4E99F
:100A000029010843D4F8AC100843D4F8B0100843C7
:100A1000D4F8B41040EA8100D4F8B810084340F488
:100A200000000949086001201AE7000000879303CD
:100A300000800240002D3101C00E1602FFFF0F00A2
:100A4000FFFF04000F8120FF00900240233FDEF8EB
:100A500010B50B794C7943EA0422094B03441A641C
:100A6000CB781B068C7843EA04434C7843EA042392
:100A70000C7843EA0402024B03445A6410BD0000A0
:100A80000080024030B10749096841F00401054A7D
:100A9000116005E00349096821F00401014A116071
:100AA000704700000080024030B10749096841F0FA
:100AB0000801054A116005E00349096821F00801B1
:100AC000014A1160704700000080024010B50346E3
:100AD0000C46002100221348016901F01C014FF46B
:100AE000784000EAC32001434FF4F86000EA841024
:100AF000014321F0020141F001010A48016100BFF8
:100B0000521C0848016911F0010F02D006488242C8
:100B1000F6D30548824201D1002010BD014840694A
:100B200080B2FAE700800240FFFF04001EB50021FA
:100B30000022009201920292214A1268126812F079
:100B4000004F10D0002200921E4A526912F0800F0E
:100B500004D080221B4B5A6100229A609DE81C0041
:100B600080E81C001EBD164A1268128812F4004F5D
:100B700016D1134A1268128812F4807F10D0104ADE
:100B80001268128812F4007F0AD00D4A12681268A7
:100B9000C2F30D42111F0A4A12689268019200E0E6
:100BA00000210091064A12680292054A1268D26832
:100BB000034B1A609DE81C0080E81C0000BFD1E7D1
:100BC0002C000020009002400348006840F0010023
:100BD00001490860704700000090024000B5012004
:100BE000FFF762FFFFF7B6FD0120FFF74BFF012083
:100BF000FFF760FD0120FFF715FD00BD002101603A
:100C000041608160C160016141618161C1610162D6
:100C100041628162C162016341638163C1634021BA
:100C200001642021416400218164C1640165416542
:100C30008165C16501668021416600218166C166CA
:100C4000016741678167C1674FF08061C0F880101C
:100C50004910C0F884104910C0F88810C910C0F8B5
:100C60008C100021C0F89010C0F89410C0F89810B3
:100C7000C0F89C10C0F8A0104FF00071C0F8A4108C
:100C80000021C0F8A8104FF40031C0F8AC10491290
:100C9000C0F8B0100021C0F8B410C0F8B810704708
:100CA000014617480068006810F0004F01D000208E
:100CB0007047C1F30C00124A126850601048006877
:100CC000006840F040500E4A126810600C480068FE
:100CD000006840F000400A4A126810600948406904
:100CE00010F0040F04D00420064A50610020506028
:100CF00003480068C068024A10600120D8E700007D
:100D0000280000200090024030B503460C461546EE
:100D1000002100221248016901F01C014FF47840C3
:100D200000EAC32001434FF4F86000EA8410014355
:100D300041F0020141F0010109484561016100BF34
:100D4000521C0748016911F0010F02D00548824288
:100D5000F6D30448824201D1002030BD0120FCE7D7
:100D600000800240FFFF04007047704770477047E3
:100D7000704770477047000000B5AFB0012000F029
:100D80004DF84FF4004001F0BDFE012001F0B4FE2B
:100D900000BF3D2001F08AFE0028FAD00B2001F0B0
:100DA000A5FEFFF7C5FCFFF70FFF00BFFFF70CFD27
:100DB0000128FBD06846FFF721FF012000900020AA
:100DC00007904FF400700A9000200B900E90119045
:100DD00013901490159020904FF000702190001106
:100DE000239000202590269004202890C00529906B
:100DF00040122A9080012B9040122C9040002E909F
:100E000001216846FFF7FCFC01210248FFF7FAFBCD
:100E10002FB000BD4000010070470000014908608C
:100E200070470000DC0020422DE9F0410246002519
:100E30000026002000230024002791F803C00CF0B6
:100E40000F0591F803C01CF0100F03D091F802C0F9
:100E50004CEA050591F800C0BCF1000F31D01468D0
:100E600000202BE04FF0010C0CFA00F3B1F800C0A9
:100E70000CEA03069E4220D183004FF00F0C0CFABF
:100E800003F7BC4305FA03FC4CEA040491F803C0E1
:100E9000BCF1280F06D14FF0010C0CFA00FCC2F88F
:100EA00014C00AE091F803C0BCF1480F05D14FF01F
:100EB000010C0CFA00FCC2F810C0401C0828D1D369
:100EC0001460B1F800C0BCF1FF0F34DD546800209D
:100ED0002EE000F1080C4FF0010808FA0CF3B1F80D
:100EE00000C00CEA03069E4221D183004FF00F0C94
:100EF0000CFA03F7BC4305FA03FC4CEA040491F82E
:100F000003C0BCF1280F05D100F1080C08FA0CF859
:100F1000C2F8148091F803C0BCF1480F07D100F16A
:100F2000080C4FF0010808FA0CF8C2F81080401CB9
:100F30000828CED35460BDE8F0810000F0B50A4621
:100F4000002300240021002500F00046B6F1004FE8
:100F500002D11D4EF16901E01B4E7168C0F30345DB
:100F600083B200F44016B6F5401F08D121F070613D
:100F7000154E766826F07066134F7E6012E000F41E
:100F80008016B6F5801F06D1032606FA05F4A143A4
:100F900041F0706106E0460D360103FA06F6B143F2
:100FA00041F0706122B1460D360103FA06F6314375
:100FB00000F00046B6F1004F02D1034EF16101E0AE
:100FC000014E7160F0BD00000000014001617047FA
:100FD00000BFFEE7704770477047704700B589B0A3
:100FE00021A103C9CDE9040105F032FE04F0B2F9F4
:100FF00004F064FC1EA001F04FFF002005F076FF16
:10100000039003A9214809F0F7F9039805F0B3FF0D
:10101000039805F02DFF1EA001F03EFF224802F0CC
:101020001BFF08906FF0FF0002F016FF07901E48AC
:10103000C01F02F011FF069004A801F0F9FD1B4843
:101040001B49002206ABCDE90021029007AA08A99E
:10105000184804F0D7FC174804F022FD154804F0A6
:101060006DFD09B000BD000000000000000100009F
:101070005443502F495020696E697469616C697AD4
:10108000696E672E2E2E200D0A000000612D0008CB
:101090005443502F495020696E697469616C697AB4
:1010A00065642E200D0A00000801A8C049A40008AC
:1010B000E93900082803002010B5024802F0EEFCD0
:1010C00010BD00002803002000BFFEE770470000AD
:1010D00070B5002100230F22C4780CB3164C24688D
:1010E00004F4E064C4F5E064210AC1F10403CA40D9
:1010F000447804FA03F184781440214309010F4C29
:101100000678A155047804F01F050124AC40057849
:101110006D114FF0E02606EB8505C5F8004109E0AA
:10112000047804F01F050124AC40054D06787611C3
:1011300045F8264070BD00000CED00E000E400E042
:1011400080E100E002490143024A1160704700005B
:101150000000FA050CED00E0024A0A400243024B8F
:101160001A60704780FFFF1F08ED00E0174818481D
:101170001848194819481A481A481B481B481C485F
:101180001C481D481D481E481E481F481F4820482F
:1011900020482148214822482248234823482448FF
:1011A00024482548254826482648274827482848CF
:1011B0002848294829482A482A482B482B482C489F
:1011C0002C482D482D4800BF7047000034AA000865
:1011D00038AA00083CAA00083EAA000840AA000855
:1011E00042AA000844AA000846AA000848AA000823
:1011F0004AAA00084CAA00084EAA000850AA0008F3
:1012000052AA000854AA000856AA000858AA0008C2
:101210005AAA00085CAA00085EAA000860AA000892
:1012200062AA000864AA000866AA000868AA000862
:101230006AAA00086CAA00086EAA000870AA000832
:1012400072AA000874AA000876AA000878AA000802
:101250007AAA00087CAA00087EAA000880AA0008D2
:1012600082AA000884AA000886AA000888AA0008A2
:101270008AAA00088CAA00088EAA000890AA000872
:1012800010B500F015F801F071F801F099F801F0CF
:10129000BBF801F043F801F04FF901F073F901F0E8
:1012A000E7F801F00DF900F004F8FFF75FFF10BD5B
:1012B0007047704710B500241A480078012830D1D3
:1012C000FEF762FF044618480078002804DD16483F
:1012D0000078401E1449087013480078F0B913488C
:1012E0000078D8B901F0A4F91148007811490978BB
:1012F000884213D010480E49097850F821000F4950
:10130000086008460068006B401C096808630C48C8
:101310000068401C0A490860FEF752FF2046FEF7AD
:1013200037FF10BD560000204D0000204E00002069
:10133000500000204F000020980C00206400002086
:10134000380000202DE9F84F06460F4690461C460F
:10135000002000900CB9BDE8F88F1EB96220207003
:101360000020F8E716F0030F03D062202070002061
:10137000F1E7022F03D25B2020700020EBE7B8F1E9
:10138000040F03D25C2020700020E4E7FEF7FCFE8F
:10139000009016480568006820B11448006840684D
:1013A000124908600098FEF7F3FE1DB95A2020701C
:1013B0000020D0E7B14606EB080A4FF0000B05E02D
:1013C000C9F800A0D146C2440BF1010B781E584564
:1013D000F6D80020C9F800002E606E602F61EF6023
:1013E000C5F8088020702846B5E70000700000208E
:1013F0002DE9F04104460D46002715B90020BDE84F
:10140000F0811CB9602028700020F8E7FEF7BCFED0
:101410000746206960B16668306860602069401ED8
:1014200020613846FEF7B4FE002028703046E6E71B
:101430003846FEF7ADFE5D2028700020DFE770B56E
:1014400004460D4600260CB9602070BD0DB95F2022
:10145000FBE7FEF799FE0646D4E90310884204D361
:101460003046FEF795FE5E20EFE760682860656015
:101470002069401C20613046FEF78AFE0020E4E728
:101480002DE9F04106460F464FF00008224800784B
:10149000002802DD0020BDE8F081FEF775FE8046E1
:1014A0001E480468006820B11C48006840681B4959
:1014B00008604046FEF76CFE0CB3FEF765FE804602
:1014C00017480568E5B1006800681549086040469E
:1014D000FEF75EFE6E6006EB8700A860EE602E6190
:1014E000AF820020E8820220207000202081656009
:1014F0003F20E07300212174204600F001FF08E046
:10150000064800686060054804604046FEF740FEFB
:1015100000242046BFE700004D0000203C000020D2
:10152000740000202DE9F0470646884615464FF026
:10153000000915B90020BDE8F0871EB90420287005
:101540000020F8E73078022803D00120287000201E
:10155000F1E73E480078002803DD022028700020D3
:10156000E9E73B480078002803DD0D2028700020C3
:10157000E1E7FEF709FE81467468E08A002813DD82
:101580002169081D20610F68E08A401EE082A16881
:101590002069884201D1606820614846FEF7F8FD65
:1015A000002028703846C6E72A48006890F82600D0
:1015B00040F004002749096881F8260000202549E9
:1015C000096881F8270023480068A0F82480304685
:1015D00000F058FE4846FEF7DBFD00F0EFFFFEF797
:1015E000D3FD81461B48006890F8270020B10128F0
:1015F0000DD002280AD105E016480068076A0020CD
:1016000028700DE000270E20287009E000BF314649
:101610001048006800F020FE00270A20287000BF54
:1016200000BF00200B49096881F8260009490968B4
:1016300081F8270007490968C861064909680862F6
:101640004846FEF7A5FD384675E700004D0000202E
:101650004E0000205C0000202DE9F04105460E46BA
:10166000002715B90420BDE8F0812878022801D0B0
:101670000120F8E7FEF788FD0746A87A60B100234D
:1016800004223146284600F0A3FD3846FEF780FDCF
:1016900000F094FF0020E6E76C68E08AA18A8842A7
:1016A00004DB3846FEF774FD1E20DCE7E168081D08
:1016B000E0600E60E08A401CE082D4E902108842BB
:1016C00001D16068E0603846FEF762FD0020CAE79D
:1016D00070B50546002612480078002801DD00207C
:1016E00070BDFEF751FD06460E480468006820B143
:1016F0000C48006840680B4908603046FEF748FD1A
:101700005CB1032020702581002060603F20E073E1
:1017100000212174204600F0F3FD2046E0E70000A0
:101720004D0000203C0000202DE9F047044688468B
:1017300015464FF0000915B92046BDE8F0871CB9E1
:10174000042028702046F8E72078032803D00120E1
:1017500028702046F1E72F480078002803DD0F208D
:1017600028702046E9E7FEF70FFD8146A07A08B110
:10177000012700E00027B8F1000F03D0B8F1010FF6
:101780003ED11BE09FB93F20E0730021217400206F
:101790002070214800686060002020811E4804609D
:1017A0004846FEF7F5FC00202870002605E0484674
:1017B000FEF7EEFC49202870264628E005E00023CD
:1017C00001221946204600F003FDA07A0028F6D138
:1017D0003F20E07300212174002020700E48006833
:1017E0006060002020810C4804604846FEF7D0FC71
:1017F000012F01D100F0E2FE00202870002606E053
:101800004846FEF7C5FC07202870264600BF00BFEB
:10181000304692E74D0000203C0000202DE9F041C9
:1018200005460E46144600270CB9BDE8F08115B9EF
:1018300004202070F9E72878032802D001202070C6
:10184000F3E732480078002802DD02202070ECE740
:101850002F480078002802DD0D202070E5E7FEF714
:1018600093FC07462889002808DD2889401E288126
:101870003846FEF78DFC00202070D6E7254800682A
:1018800090F8260040F001002249096881F82600FE
:1018900000202049096881F827001E4800688684D6
:1018A000284600F0EFFC3846FEF772FC00F086FE9A
:1018B000FEF76AFC07461748006890F8270020B139
:1018C000012809D0022806D102E0002020700BE098
:1018D0000E20207008E000BF29460E48006800F086
:1018E000BBFC0A20207000BF00BF00200949096826
:1018F00081F826000749096881F827000549096829
:10190000C8613846FEF744FC00BF8EE74D0000205A
:101910004E0000205C00002070B5044600250CB984
:10192000042070BD2078032801D00120F9E7FEF7DC
:101930002BFC0546A07A60B10023012219462046FF
:1019400000F046FC2846FEF723FC00F037FE00209E
:10195000E7E720894FF6FF71884207D22089401CB3
:1019600020812846FEF714FC0020DAE72846FEF71F
:101970000FFC3220D5E7000010B50B48007890B975
:1019800000F056FE094800780949087009480749DF
:10199000097850F82100084908600846006807499E
:1019A0000860FEF7F8FB10BD560000205000002034
:1019B0004F000020980C0020640000205C000020F4
:1019C000704700002DE9FE4F06460F4690461C4624
:1019D0004FF000091F2C02DD2A20BDE8FE8FFEF724
:1019E000D3FB81461F480078002804DD4846FEF7F7
:1019F000CFFB3C20F1E71C4850F8240060BB0120DD
:101A0000194941F824004846FEF7C2FB002342462C
:101A10003946304600F01AFA8246002000900190C4
:101A20000346024651460290204600F02FFE05462E
:101A300035B90E48007801280CD100F0BFFD09E04F
:101A4000FEF7A2FB81460020074941F824004846E2
:101A5000FEF79EFB2846C0E74846FEF799FB282084
:101A6000BBE700004D000020980C0020560000202D
:101A70002DE9F04F85B081468A4693461C46DDE944
:101A80000F78129D002003901F2C03DD2A2005B043
:101A9000BDE8F08FFEF778FB03902248007800281D
:101AA00004DD0398FEF774FB3C20F0E71E4850F875
:101AB000240088BB01201C4941F824000398FEF74C
:101AC00067FB2A464146384600F0EAFE2B465A4656
:101AD0005146484600F0BAF904901198CDE90080CB
:101AE00002953A4620460E9B049900F0CFFD06462B
:101AF00036B90E48007801280CD100F05FFD09E0EE
:101B0000FEF742FB03900020074941F824000398A8
:101B1000FEF73EFB3046BAE7FFE70398FEF738FBD7
:101B20002820B4E74D000020980C0020560000202B
:101B30007047000070B5054600264A480078002826
:101B400001DD402070BD1F2D01D13E20FAE71F2D81
:101B500003DBFF2D01D02A20F4E7FEF715FB064634
:101B6000FF2D03D14048006890F828503F4850F8B6
:101B7000254024B93046FEF70BFB4320E2E7012C59
:101B800004D13046FEF704FB3D20DBE714F82A0FB2
:101B90003749085C617888432178354A505414F8F5
:101BA0002A091146085C30B994F82C1031480078A5
:101BB000884330490870E06918B12046E16900F0B7
:101BC0004BFB0020A08484F8260084F827002A48D4
:101BD0000078FF2804D228480078401C2649087065
:101BE0003046FEF7D5FA00F0F2FAFEF7CDFA0646D7
:101BF00021480078002804DD1F480078401E1E4957
:101C00000870204600F042F81C480078401E1B492E
:101C100008700020154941F82500A06930B900205E
:101C20006169886116496069086005E0D4E90501C9
:101C30004861D4E905108861124800686061114864
:101C400004603F2084F844000021452001553046BF
:101C5000FEF79EFA0C480078012801D100F0AEFC96
:101C600000206FE74D0000205C000020980C002051
:101C700052000020510000204E000020570000209C
:101C80006800002060000020560000207047704768
:101C90002DE9F04705460F4614464FF000090CB9F0
:101CA000BDE8F0871F2D04DDFF2D02D02A20207013
:101CB000F6E717B90C202070F2E71D4800780028DD
:101CC00002DD12202070EBE7FEF75EFA8146FF2D61
:101CD00003D11848006890F82850174850F825603C
:101CE0002EB94846FEF754FA43202070D8E7012E5B
:101CF00005D14846FEF74CFA43202070D0E738461D
:101D000000F0BAFC8046B8F10F0F05DD4846FEF73B
:101D10003FFA41202070C3E7394606F1440000F045
:101D20009DFC4846FEF734FA0020207000BFB7E75C
:101D30004D0000205C000020980C00202DE9F041AF
:101D400004460E4600271F2C04DDFF2C02D02A205B
:101D5000BDE8F0810EB90920FAE7FEF715FA07464B
:101D6000FF2C03D10E48006890F828400D4850F829
:101D7000245025B93846FEF70BFA2920E8E7012D53
:101D800004D13846FEF704FA4320E1E754222946FD
:101D9000304600F0C6FB3846FEF7FAF90020D7E7D8
:101DA0005C000020980C0020704700002DE9F047EF
:101DB00006460C464FF0000A1F2E04DDFF2E02D00F
:101DC0002A20BDE8F0870CB90920FAE7002020603E
:101DD0006060FEF7D9F98246FF2E03D119480068EA
:101DE00090F82860184850F8265025B95046FEF75C
:101DF000CFF94320E5E7012D04D15046FEF7C8F99D
:101E00004320DEE7287C10F0010F04D15046FEF796
:101E1000BFF94520D5E70027D5F80C90D5F8088004
:101E20005046FEF7B5F900E07F1C58F8041B002966
:101E3000FAD0B8002060A9EB0700800060600020A5
:101E4000BFE700005C000020980C002070B504463D
:101E500010464FF080750560051F28462C606FF016
:101E60000106051F28462E604FF01236051F284632
:101E70002E604FF00336051F28462E604FF00236C5
:101E8000051F28462E607610051F28462E60051F68
:101E9000284629604FF01136051F28462E604FF066
:101EA0001036051F28462E604FF00936051F2846BC
:101EB0002E604FF00836051F28462E604FF007367B
:101EC000051F28462E604FF00636051F28462E6057
:101ED0004FF00536051F28462E604FF00436051FCB
:101EE00028462E6070BD00002DE9F04105464FF0F8
:101EF00000081F2D02D14720BDE8F0811F2D03DB14
:101F0000FF2D01D02A20F7E7FEF73EF98046FF2D8E
:101F100005D12048006890F82850012608E01D48A7
:101F2000006890F82800A84201D1012600E00026B0
:101F3000194850F8254024B94046FEF729F94820B1
:101F4000DAE7012C04D14046FEF722F94320D3E71B
:101F500094F82A701148C05D94F82B1088430F49FB
:101F6000C8550846C05D30B994F82C100C4800786C
:101F700088430B49087094F8260040F0080084F864
:101F800026004046FEF704F9012E01D100F016FBB1
:101F90000020B1E75C000020980C002052000020D7
:101FA000510000207047000070B505460026164815
:101FB0000078002800DD70BD002D23DDFEF7E4F879
:101FC00006461248006890F82A401148005D0F4903
:101FD000096891F82B1088430D4908550846005DA3
:101FE00040B90A48006890F82C100A4800788843E5
:101FF000084908700548006885843046FEF7C8F82F
:1020000000F0DCFA00BFD6E74D0000205C000020A5
:1020100052000020510000202DE9F04780460D4677
:1020200016461C4624480078002802DD5520BDE8ED
:10203000F087B8F1000F04D11DB916B90CB95420BE
:10204000F5E73B2D01DD5120F1E73B2E01DD52206C
:10205000EDE7B4F57A7F01DB5320E8E74FF47A70BF
:1020600060434FF47A71B0FBF1F14FF4616008FB0B
:1020700000F0C5EB051200EB8200304400EB40029B
:10208000C2EBC01001EBC0074FEA1749BFB2384698
:10209000FFF78AFF0BE04FF40040FFF785FF4FF496
:1020A0000040FFF781FFA9F101001FFA80F9B9F1A3
:1020B000000FF0DC0020BAE74D00002070B50025CD
:1020C000FEF762F80546034804682846FEF760F804
:1020D000204670BD7800002070B5002600F076F82C
:1020E000FEF752F8064633480068401C3149086044
:1020F0003046FEF74DF830480078012858D12F4877
:10210000007820B1012804D0022809D103E001257C
:102110000BE0002509E0012501202849087004E0B2
:10212000012500202549087000BF00BF05B970BD1A
:102130002348046838E0FEF727F80646A08C78B3F9
:10214000A08C401E0004000CA08429D194F8260025
:1021500010F0370F09D014F8260F20F03700207048
:1021600001206070A4F1260402E0002084F827001A
:1021700094F8260010F0080F12D104F12A04A07878
:102180001049097840EA01000E49087020780E498C
:10219000085C617840EA010014F82A190A4A505490
:1021A00064693046FDF7F4FF94F828001F28C2D177
:1021B00000BFBCE778000020560000206C00002023
:1021C0006800002051000020520000207047704736
:1021D0002DE9F04F05460F4690469946A87A1A49D0
:1021E0000E5C05F10B00805D11F800B00BEBC60032
:1021F00000F0FF0A154850F82A40002004F120049E
:10220000A0802760A07920EA0800A07184F80790D8
:10221000A079A4F1200410F0080F0DD194F82C003F
:102220000B49097808430A4908700A48805D94F808
:102230002B100843074988552946204600F00CF822
:102240005046BDE8F08F000034A90008980C00202B
:10225000510000205200002010B590F82A2001F112
:102260000B039B5C90F82B40A34301F10B04A35498
:1022700023469B5C23B98B7A90F82C40A3438B7246
:1022800010BD000010B51B4A1268D061194A1268CF
:1022900092F82A3000F10B02D25C164B1B6893F8BF
:1022A0002B301A43134B1B6893F82A4000F10B03A1
:1022B0001A55827A0F4B1B6893F82C301A4382729E
:1022C0000C4A126892F82A100B4A525C094B1B68A0
:1022D00093F82B309A43084B5A541A46525C42B931
:1022E000044A126892F82C30044A12789A43034B3D
:1022F0001A7010BD5C000020520000205100002028
:102300000023837200F10B01002204E0002301F896
:10231000013B531CDAB2042AF8DB704730B54FF4A6
:10232000A071104800F0F4F80E4B03F120050024D2
:102330000AE0002018705D603F20D87300211974F6
:1023400020332035601C84B2092CF2DB0020187089
:1023500058603F20D8730021197402480249086070
:1023600030BD0000580700203C00002000200A4932
:1023700008600A4908700A4908700A4908700A4941
:1023800008700A4908600A4908600A4908600A4951
:1023900008600A4908707047780000204D0000204E
:1023A0004E0000205700002056000020380000207A
:1023B0005800002048000020440000204C0000206D
:1023C00000220B4B1A700B49002004E0002201F898
:1023D000012B421CD0B20428F8DB0022064B1A70F5
:1023E000064B1A70064B1A60064B1A6070470000C5
:1023F00051000020520000204F000020500000201B
:10240000640000205C00002030B54FF4E761144800
:1024100000F07EF88021134800F07AF8104B03F1A9
:10242000540500240AE05D613F2083F84400002148
:102430004520C15454335435601CC4B2152CF2D31A
:10244000002058613F2083F8440000214520C154FA
:1024500000200549086002480449086030BD0000BA
:10246000180D0020980C002068000020600000205B
:1024700000B587B00320002180220A4BCDE901324C
:10248000CDE903104FF6FF701F23074A009007485D
:10249000FFF7EEFA06AA06A11F20FFF7F9FB07B027
:1024A00000BD0000980A0020940C0020B927000805
:1024B00075432F4F532D49492049646C6500000036
:1024C00000B587B00320002180220A4BCDE90132FC
:1024D000CDE903104FF6FE701E23074A009007480F
:1024E000FFF7C6FA06AA06A11E20FFF7D1FB07B028
:1024F00000BD000098080020940A0020DD27000895
:1025000075432F4F532D49492053746174000000C7
:1025100004E0002200F8012B4A1E91B20029F8DCE9
:10252000704705E011F8013B00F8013B531E9AB2D9
:10253000002AF7DC7047000070B5B4210F48FFF7A0
:10254000E7FF0E4C00250DE0681C00EBC0000B49B6
:1025500001EB800060603F2020750021617524340C
:10256000681C85B2042DEFDB002060603F202075E1
:102570000021617501480249086070BD50140020B7
:102580007000002070B560210A48FFF7C1FF094CB8
:1025900004F11806002504E0266018341836681C7B
:1025A00085B2032DF8DB0020206002480249086054
:1025B00070BD0000041500207400002010B5002438
:1025C000FDF7E2FD044613480078F0B912480078A0
:1025D000D8B900F02DF811480078114909788842DF
:1025E00013D010480D49097850F821000E490860B1
:1025F00008460068006B401C096808630B480068C7
:10260000401C0A490860FDF7D6FD2046FDF7C0FDD5
:1026100010BD00004D0000204E00002050000020A2
:102620004F000020980C002064000020380000209B
:102630000649074A1278885C0649095C034A515CDE
:1026400001EBC001044A11707047000034A9000872
:1026500051000020520000205000002002460020BF
:1026600005E011F8013B02F8013B431CD8B20B789E
:10267000002BF6D1137070470146002002E0491C80
:10268000421CD0B20A78002AF9D170472DE9F84FE0
:1026900005460E4617469846DDE90BABDDF8289057
:1026A00000200090FDF770FD00903D480468002C6C
:1026B00070D054F8140F3A4908600098FDF768FD8F
:1026C00044F8146C25750020A074E074208244F84E
:1026D00010AC44F8089C44F80C7C24F804BC24F8A2
:1026E000028C6076E810A07505F007006075A17D8A
:1026F000012088402076617D01208840E07500201F
:10270000A060E060E06160622062A062E0623F2061
:1027100084F83000A4F114044FF000014FF045009C
:1027200001552046FFF74CF92046FFF701FAFDF767
:102730002BFD00901B4840F825401B480068606155
:102740000020A0611848006810B117480068846133
:102750001548046004F12A04A0781449097840EA75
:1027600001001249087020781149085C617840EA3C
:10277000010014F82A190E4A50540E48007800F14E
:1027800001000C4908700098FDF702FD0020BDE82B
:10279000F88FFFE70098FDF7FBFC4220F7E7000009
:1027A00060000020980C00206800002051000020EC
:1027B0005200002057000020002400BFFDF7E4FC79
:1027C000044605480068401C034908602046FDF7A0
:1027D000DFFCFFF75CFAF1E758000020002402E07C
:1027E000C820FFF7E1FB1A4800780028F8D0194804
:1027F00000686421B0FBF1F01649086008460068E3
:1028000028B9002014490870FF20FFF76DFB00BFB6
:10281000FDF7BAFC04461148006811490860002021
:102820000E4908602046FDF7B3FC0D4800680949D1
:102830000968B0FBF1F0C0F1640007490870FFF7C8
:10284000B3FA00F00FF86420FFF7AEFBE0E70000FA
:102850004C000020440000204000002058000020D0
:10286000480000207CB5002514E069462846FFF7A3
:102870009DFA064666B9094850F8254044B1012C36
:1028800006D0D4E9020100EB8100E06301982064E6
:10289000681CC5B21F2DE8DD7CBD0000980C00202F
:1028A00012F0010F08D012F0020F05D002E0491E0D
:1028B000002308C00029FAD17047704729B1064AA1
:1028C00052690243044B5A6104E0034A526982434D
:1028D000014B5A61704700000010024029B1064ABE
:1028E000926A0243044B9A6204E0034A926A82436A
:1028F000014B9A62704700000010024029B1064A5D
:1029000092690243044B9A6104E0034A926982434C
:10291000014B9A6170470000001002402DE9F04120
:1029200000210022002500230026002400278C46D9
:10293000DFF86081D8F8048008F00C0121B1042987
:1029400007D0082959D109E0DFF84C81C0F8008090
:1029500058E0DFF84881C0F8008053E0DFF83481A8
:10296000D8F8048008F47012DFF82881D8F80480C1
:1029700008F48035920C0D2A01D0921C00E006224A
:1029800035B9DFF81C8102FB08F8C0F8008033E09D
:10299000DFF80081D8F82C8008F48036DFF8F48066
:1029A000D8F82C8008F00F0808F1010446B9DFF8C8
:1029B000EC80B8FBF4F808FB02F8C0F800801BE0DC
:1029C000DFF8D080D8F82C80C8F3031808F101078D
:1029D000DFF8C080D8F82C80C8F3032808F1020C77
:1029E000DFF8B880B8FBF7F808FB0CF8B8FBF4F890
:1029F00008FB02F8C0F8008004E0DFF89C80C0F813
:102A0000008000BF00BFDFF88C80D8F8048008F099
:102A1000F0010909DFF88C8018F80130D0F8008047
:102A200028FA03F8C0F80480DFF86880D8F804803A
:102A300008F4E061090ADFF86C8018F80130D0F87A
:102A4000048028FA03F8C0F80880DFF84880D8F836
:102A5000048008F46051C90ADFF8488018F8013092
:102A6000D0F8048028FA03F8C0F80C80DFF824803E
:102A7000D8F8048008F44041890BDFF82C8018F85E
:102A80000130D0F80C80B8FBF3F8C0F81080BDE836
:102A9000F08100000010024000127A0040787D01B1
:102AA00000093D00000000201000002010B5014684
:102AB0000022002300204A11012A02D1094C236878
:102AC00006E0022A02D1074C236A01E0054C636A42
:102AD00001F01F02012494401C4201D0012000E0BB
:102AE000002010BD00100240704700000149C8716D
:102AF000704700000010024001490867704700005D
:102B00000000424201460020034AD06A20F470408F
:102B10000843D062704700000010024070477047C1
:102B200070477047704710B500F002F810BD000004
:102B3000002100203A4A126842F48032384B1A6071
:102B400000BF374A126802F40030491C10B9B1F5D1
:102B5000A06FF6D1324A126812F4003F01D0012072
:102B600000E0002001285AD12E4A126842F01002DB
:102B70002C4B1A601A46126822F003021A601A4699
:102B8000126842F002021A60254A5268244B5A60C9
:102B90001A4652685A601A46526842F480625A6075
:102BA0001A46D26A204B1A401D4BDA621A46D26A84
:102BB0001E4B1A431A4BDA621A46126842F08062C0
:102BC0001A6000BF164A126812F0006FFAD0144A59
:102BD000526822F47C12124B5A601A46526842F430
:102BE000E8125A601A46126842F080721A6000BFFA
:102BF0000B4A126812F0007FFAD0094A526822F09C
:102C00000302074B5A601A46526842F002025A60A9
:102C100000BF034A526802F00C02082AF9D170473B
:102C2000001002400020024000F0FEFF44060100B8
:102C300010B5044620780849087060784870A0787C
:102C40008870E078C87020790871607948712146F1
:102C50000020FDF7FDFE10BD8800002010B5FDF737
:102C600093FA044606480078401C0549087020463F
:102C7000FDF78EFAFFF730FAFEF71CFB10BD0000DF
:102C80004D00002030B5144800684FF47A72B0FB54
:102C9000F2F1B1F1807F00D31DE021F07F40401EB2
:102CA0004FF0E022506150170F22002807DA130777
:102CB0001D0E0A4B00F00F04241F1D5503E01307DF
:102CC0001C0E074B1C5400BF00204FF0E022906107
:102CD0000720106100BF30BD1400002018ED00E097
:102CE00000E400E010B51648006840F00100144907
:102CF0000860084640681349084011494860084682
:102D00000068114908400E4908600846006820F430
:102D1000802008600846406820F4FE0048600846AD
:102D2000006820F0A05008604FF47F008860002009
:102D3000C862FFF7F8FE4FF000600449086010BD5C
:102D4000001002400000FFF0FFFFF6FE08ED00E07B
:102D500070477047704770477047704770477047BB
:102D600070B504462546286804F0FEF870BD70472B
:102D70007047704710B502460020108A4FF2FF03DB
:102D800018400B884C8823438C882343CC882343EA
:102D90001843108210BD21B1828942F40052828111
:102DA00004E082894DF6FF731A408281704700006B
:102DB0002DE9F04786B005460E460024A24600BF26
:102DC000A1460027B08900B100BF2F462C8A4CF6DF
:102DD000FF700440F08804432C82AC894EF6F31057
:102DE0000440B08831890843718908430443AC81A9
:102DF000AC8A4FF6FF400440B0890443AC8201A87E
:102E0000FFF78CFD1F48874202D1DDF810A001E0DA
:102E1000DDF80CA0A88910F4004F08D00AEBCA0016
:102E200000EB0A1031684900B0FBF1F807E00AEB4B
:102E3000CA0000EB0A1031688900B0FBF1F8642089
:102E4000B8FBF0F004012009642101FB1089A88976
:102E500010F4004F08D0322000EBC900B0FBF1F0B5
:102E600000F00700044308E0322000EB0910642161
:102E7000B0FBF1F000F00F0004432C8106B0BDE878
:102E8000F087000000380140C1F3080282807047DB
:102E900000BFFEE7704700000FB4054B10B503A953
:102EA000044A029800F018F810BC5DF814FB00000A
:102EB0005D3D00082401002002E008C8121F08C17F
:102EC000002AFAD170477047002001E001C1121FAB
:102ED000002AFBD1704700002DE9FF4F8BB09A46C6
:102EE0000F4605460026C9E0252837D100246D1C71
:102EF0006649A14601222B78203B02FA03F00842E2
:102F000002D004436D1CF6E728782E2817D115F857
:102F1000010F44F004042A280ED06FF02F02287805
:102F2000A0F1300109290AD809EB890102EB41011E
:102F300000EB01096D1CF2E757F8049B6D1C287823
:102F400069283FD006DC002871D063280CD06428A3
:102F500004D137E0732811D075284ED052460D9910
:102F6000904706F1010688E017F8040B8DF8000081
:102F700000208DF80100E846012003E057F8048B9B
:102F80004FF0FF3061074FF0000401D40AE0641CE9
:102F90004C450DDA8442FADB18F804100029F6D10A
:102FA00006E0641C8442FCDB18F804100029F8D108
:102FB000264404E018F8010B52460D999047641E10
:102FC000F8D25AE001CF4FF00A0B002804DAC0F122
:102FD00000004FF02D0102E0210504D52B218DF8D2
:102FE0002410012103E0E10705D02021F7E70DF1CE
:102FF000200808910CE00021F9E701CF4FF00A0BFF
:10300000F9E75946FDF736F901F1300208F8012DCC
:103010000028F6D1ADEB080000F1200B600701D4C9
:103020004FF00109D94503DDA9EB0B0001E029E0D0
:1030300000208146002406E009A85246005D0D9953
:103040009047761C641C08988442F5DB04E030202D
:1030500052460D999047761CB9F10001A9F101097A
:10306000F5DC05E018F8010B52460D999047761CE7
:10307000BBF10001ABF1010BF4DC6D1C28780028DA
:103080007FF432AF0FB03046BDE8F08F0928010061
:1030900010B5044600F0E4FB0022034941F28830F9
:1030A00003F0E4FF10BD0000913000082DE9FC475B
:1030B00006468846174600BF56B900BF4FA34FF4D7
:1030C0001D7256A159A0FFF7E7FE00BFBDE8FC87BF
:1030D00000BF78892A2803D2384603F0B9F9F5E70A
:1030E0007C68012000F0C5FEE189884214D140F2DD
:1030F000046000F0BEFE618A88420DD14FF400608A
:1031000000F0B7FE218A884206D140F6060000F0A2
:10311000B0FEA189884203D0384603F099F9D5E77B
:10312000E0690190D4F826000090706810B94FF063
:10313000000907E000987168884201D1012000E091
:1031400000208146B9F1000F07D0012304F11602D7
:1031500001A9304607F032FB06E0002304F1160215
:1031600001A9304607F02AFBA08A00F082FE012860
:1031700002D002283AD138E0B9F1000F33D0022052
:1031800000F077FEA082E069C4F826007068E06174
:1031900000BF96F82000062808D000BF17A340F211
:1031A000C5222C4921A0FFF777FE00BF00BF0625EE
:1031B00012E0681EC5B204F11600415D0A304155A7
:1031C0000A38405D605518F8051004F116004155A5
:1031D00018F80510A01D4155002DEADC394630468F
:1031E000B269904700E000BF01E000E000BF00BF0F
:1031F000384603F02DF900BF68E700002E2E5C73FF
:1032000072635C4C7749505C7372635C6E65746981
:10321000665C6574686172702E6300006E65746927
:103220006620213D204E554C4C00000041737365D3
:103230007274696F6E2022257322206661696C6545
:1032400064206174206C696E6520256420696E209D
:1032500025730A003CAB000870B504460E4600BF5B
:103260004CB900BF0EA340F2472215A118A0FFF7EA
:1032700013FE00BF70BD00BF7568D5F81A00A168C5
:103280000840D4E901121140884200D0F2E700233F
:10329000AA1D05F11A01204607F090FA00BFE9E7E0
:1032A0002E2E5C7372635C4C7749505C7372635C66
:1032B0006E657469665C6574686172702E63000087
:1032C0006E6574696620213D204E554C4C0000000F
:1032D000417373657274696F6E20222573222066B4
:1032E00061696C6564206174206C696E6520256479
:1032F00020696E2025730A002DE9FC4104460E4624
:1033000015460E21304603F045F918B16FF0010063
:10331000BDE8FC8100272146284601F001F808B1EC
:10332000274F44E04FF0704002F01EFC296800EA8D
:1033300001084FF0604002F017FC804521D10120C8
:103340008DF8000000208DF801005E208DF802004D
:10335000286802F009FCC0F3074000F07F008DF8F8
:103360000300286802F000FCC0F30F20C0B28DF803
:103370000400286802F0F8FBC0B28DF805006F4623
:1033800015E02868A1680840D4E90112114088427C
:1033900007D0E06810B104F10C0502E06FF0030003
:1033A000B6E732462946204600F00CF8B0E73B4627
:1033B00004F121023146204600F0FEF9A8E70000A2
:1033C00030AB00082DE9F84F81460F46164609F14B
:1033D000210A4FF0FF3000904946384600F0A0FF28
:1033E00078B94FF0704002F0BFFB396800EA010580
:1033F0004FF0604002F0B8FB854202D00FB1386850
:1034000018B96FF00900BDE8F88F0121384600F0C7
:103410005BFB0446002C01DA2046F4E704EB840051
:103420005C4901EB8000807B30B9012004EB840112
:10343000584A02EB8101887300BF04EB84005549B0
:1034400001EB8000807B01280FD004EB840001EBAE
:103450008000807B022808D000BF4FA340F28F324B
:1034600055A15FA0FFF718FD00BF00BF04EB84006B
:10347000484901EB8000807B012800D02EB93946F5
:10348000484600F083F9009000BF002E13D004EBF3
:103490008400404901EB8000807B02280CD104EBC2
:1034A000840001EB800000F1080352463146484693
:1034B00000F082F900906BE004EB8400354901EBE9
:1034C0008000807B012863D14FF0000B354617E068
:1034D00000BF6889298988420AD1286840B100BFA5
:1034E0002DA34FF46C7248A13DA0FFF7D5FC00BF9F
:1034F00000BF287B012802D04FF0010B02E02D68AD
:10350000002DE5D100BFBBF1000F10D029890022AA
:10351000032002F035FB05466DB13146284602F026
:10352000EBFD40B1284602F093FF002503E035464D
:10353000284603F0ABF955B3082002F0F1F98046B4
:10354000B8F1000F1FD00020C8F80000C8F80450E0
:1035500004EB84000F4951F8200060B104EB8401B2
:103560000C4A52F8210000E0006801680029FBD1F4
:10357000C0F8008004E004EB8400064941F8208094
:103580000020009002E0284602F062FF00BF00BF6A
:10359000009838E720E900202E2E5C7372635C4CA3
:1035A0007749505C7372635C6E657469665C6574C0
:1035B000686172702E6300006172705F7461626C8A
:1035C000655B695D2E7374617465203D3D205045D7
:1035D0004E44494E47206F7220535441424C45009F
:1035E000417373657274696F6E20222573222066A1
:1035F00061696C6564206174206C696E6520256466
:1036000020696E2025730A006E6F207061636B6500
:10361000742071756575657320616C6C6F77656476
:10362000210000002DE9F84F0746884691469A464A
:10363000DDF828B00020009000222A21032002F0AB
:103640009FFA06461EB94FF0FF30BDE8F88F00BF65
:1036500070892A2808D200BF2CA340F21A4233A155
:103660003FA0FFF719FC00BF00BF74680D9800F081
:1036700000FCA08200BF97F82000062808D000BFF9
:1036800022A340F22142404935A0FFF705FC00BFCC
:1036900000BF062512E0681EC5B21AF8051004F135
:1036A000160041550B98415D04F12000415519F871
:1036B0000500605518F80510A01D4155002DEADCE5
:1036C000DBF80000E0610C980068C4F826000120D7
:1036D00000F0CFFBE0814FF4006000F0CAFB2082D5
:1036E00040F2046000F0C5FB608240F6060000F086
:1036F000C0FBA08131463846BA69904700903046F9
:1037000002F0A6FE002600989FE700002E2E5C73B4
:1037100072635C4C7749505C7372635C6E6574696C
:10372000665C6574686172702E630000636865632F
:103730006B2074686174206669727374207062759E
:10374000662063616E20686F6C64207374727563A9
:1037500074206574686172705F68647200000000B4
:10376000417373657274696F6E202225732220661F
:1037700061696C6564206174206C696E65202564E4
:1037800020696E2025730A003CAB00087FB5044613
:103790000D460121064A201D04F121038DE8250074
:1037A0000391044A19462046FFF73CFF04B070BD60
:1037B00036AB000830AB00082DE9F04705460F4650
:1037C000904699467E6800BF95F82000062808D0EC
:1037D00000BF10A340F2B112164917A0FFF75CFB1F
:1037E00000BF00BF062408E0601EC4B219F8040040
:1037F000305518F80410B01D0155002CF4DC4FF4BE
:10380000006000F036FBB08139462846AA6990472F
:10381000BDE8F0872E2E5C7372635C4C7749505C78
:103820007372635C6E657469665C657468617270FE
:103830002E6300003CAB0008417373657274696FBE
:103840006E2022257322206661696C656420617494
:10385000206C696E6520256420696E2025730A003E
:1038600010B5002446E004EB8400244901EB8000FD
:10387000C07B401C04EB8401204A02EB8101C87329
:1038800004EB8400114601EB8000807B022806D106
:1038900004EB840001EB8000C07BF0280EDA04EB1F
:1038A0008400164901EB8000807B012820D104EBC5
:1038B000840001EB8000C07B022819DB04EB84004C
:1038C0000E4951F8200060B104EB84010B4A52F814
:1038D000210000F055FA002004EB8401074A42F869
:1038E0002100002004EB8401044A02EB810188736B
:1038F000601CC4B20A2CB6DB10BD000020E9002019
:1039000070B504460D466668B08900F0B2FAB0F5AD
:10391000006F04D0A0F50060063827D11FE02146D3
:103920002846FFF799FC6FF00D01204602F032FEA9
:1039300000280FD000BF00BF10A340F27D4217A1A6
:103940001FA0FFF7A9FA00BF00BF204602F080FDCC
:10395000002403E02946204600F0B0FD0BE022469B
:1039600005F121012846FFF7A1FB04E0204602F003
:103970006FFD002400BF00BF002070BD2E2E5C73C1
:1039800072635C4C7749505C7372635C6E657469FA
:10399000665C6574686172702E63000043616E2717
:1039A00074206D6F7665206F76657220686561643E
:1039B000657220696E207061636B657400000000A1
:1039C000417373657274696F6E20222573222066BD
:1039D00061696C6564206174206C696E6520256482
:1039E00020696E2025730A0070B5044600BF44B9F3
:1039F00000BF12A34FF4A17218A11CA0FFF74CFA4C
:103A000000BF00BF082001F0DBFC054615B94FF0F0
:103A1000FF3070BDE561732084F82B0074212C20E9
:103A200001551C4860611C48A06104F12100286018
:103A3000204601F0F7FA0020EBE700002E2E5C7321
:103A400072635C4C7749505C706F72745C6574682B
:103A500065726E657469662E630000006E65746938
:103A60006620213D204E554C4C000000417373658B
:103A70007274696F6E2022257322206661696C65FD
:103A800064206174206C696E6520256420696E2055
:103A900025730A00F93200083D51000870B504464C
:103AA000204601F011FB064616B94FF0FF3070BDFD
:103AB000214630462269904705461DB1304602F046
:103AC000C7FC00262846F2E72DE9FC5F05460F46B5
:103AD0004FF00A08C1460A260024A34600200190A0
:103AE000B2460090CDB17E48007800EB80007D4961
:103AF00001EB8000807B02280FD128687849097883
:103B000001EB8101774A02EB81014968884204D1C7
:103B10007348007840B2BDE8FC9F002473E00A2E91
:103B200008D104EB84006F4901EB8000807B08B969
:103B300066B266E004EB84006A4901EB8000807B9A
:103B4000012836D165B1286804EB8401654A02EB8F
:103B500081014968884203D16148047060B2DAE7A4
:103B600004EB84005F4951F8200088B104EB840025
:103B700001EB8000C17B0098814242DB4FFA84FA5E
:103B800004EB8400574901EB8000C07B009038E0D3
:103B900004EB8400534901EB8000C07B584530DBC7
:103BA0004FFA84F804EB840001EB800090F80FB02A
:103BB00027E004EB84004B4901EB8000807B022866
:103BC0001FD165B1286804EB8401464A02EB8101EC
:103BD0004968884203D14248047060B29BE704EB15
:103BE0008400404901EB8000C17B0198814208DBE1
:103BF0004FFA84F904EB84003A4901EB8000C07B62
:103C00000190601CC4B20A2C89DB0A2E02D117F085
:103C1000010F02D017F0020F02D04FF0FF307AE709
:103C20000A2E01DAF4B231E0B9F10A0F12DA09F022
:103C3000FF0400BF04EB84002A4951F8200040B182
:103C400000BF29A34FF4BA722FA135A0FFF724F9C2
:103C500000BF1BE0B8F10A0F02DA08F0FF0415E01C
:103C6000BAF10A0F0FDA0AF0FF0404EB84011D4ACF
:103C700052F8210000F084F8002004EB8401194A76
:103C800042F8210002E04FF0FF3044E700BF0A2C69
:103C900008DB00BF14A34FF4C5722BA120A0FFF7CF
:103CA000FBF800BF00BF002004EB84010D4A02EBCB
:103CB0008101887345B105B900E0286804EB8401EF
:103CC000084A02EB81014860002004EB8401054AA8
:103CD00002EB8101C8730248047060B21BE7000068
:103CE0002201002020E900202E2E5C7372635C4CC0
:103CF0007749505C7372635C6E657469665C657469
:103D0000686172702E6300006172705F7461626C32
:103D1000655B695D2E71203D3D204E554C4C000089
:103D2000417373657274696F6E2022257322206659
:103D300061696C6564206174206C696E652025641E
:103D400020696E2025730A0069203C204152505F93
:103D50005441424C455F53495A45000070B50446F2
:103D60000D46E1B20548FFF78FF800BF0348008811
:103D700010F0800FFAD0204670BD000000380140DE
:103D800070B5044600BF3CB900BF16A392221DA126
:103D90001FA0FFF781F800BF00BF00BF606838B9FF
:103DA00000BF10A3932224A119A0FFF775F800BF4C
:103DB00000BF14E02546246800BF686838B900BF1A
:103DC00008A3972220A112A0FFF766F800BF00BF4A
:103DD000686802F03DFB2946082001F01DFD002C1B
:103DE000E8D170BD2E2E5C7372635C4C7749505CD9
:103DF0007372635C6E657469665C65746861727029
:103E00002E6300007120213D204E554C4C000000D7
:103E1000417373657274696F6E2022257322206668
:103E200061696C6564206174206C696E652025642D
:103E300020696E2025730A00712D3E7020213D20DF
:103E40004E554C4C00000000722D3E7020213D204C
:103E50004E554C4C000000000146080601F47F421C
:103E600040EA022001F47F0240EA122040EA116099
:103E7000704701460806000C40EA1120704770B5F3
:103E800005460C4622460321284600F08DF970BDF8
:103E90002DE9FF5F054689466C68208801F06AFEBF
:103EA000C0F3032087007942284602F073FB10B963
:103EB0002889042800D2D2E0686890F800A0BAF1FE
:103EC000080F71D101264FF0704001F04DFE2169BD
:103ED00000EA010B4FF0604001F046FE834500D13F
:103EE0000026494604F1100000F01AFA00B100263D
:103EF00026B9284602F0ACFABDE8FF9F28890828B9
:103F000000D2ACE0284600F0E0F918B1284602F0F3
:103F10009FFAF1E72221284602F03CFB002850D00E
:103F20003946284602F036FB00280AD000BF00BF01
:103F30004FA3962257A164A0FEF7AEFF00BF00BFBB
:103F400091E029890022022001F01AFE064606B9F6
:103F500089E000BF718907F10800814207D200BFE4
:103F600043A39F2262A158A0FEF796FF00BF00BFA7
:103F70002946304602F0C0F850B100BF00BF3CA354
:103F8000A32269A150A0FEF787FF00BF00BF6AE02F
:103F90007468784201B2304602F0FCFA60B100BFAA
:103FA00000BF33A3A92200E053E069A146A0FEF7B9
:103FB00073FF00BF00BF56E0284602F049FA3546BD
:103FC00010E06FF02101284602F0E4FA50B100BF82
:103FD00000BF27A3B3225EA13BA0FEF75DFF00BF99
:103FE00000BF40E0D5F80480E06803902069E060FD
:103FF00003982061002088F80000A8F802002089BA
:1040000001F0B8FDC0B240F47F463046FFF731FF03
:104010002081002060813946284602F0BBFA48B171
:1040200000BF00BF12A3DE2256A127A0FEF734FF77
:1040300000BF0DE001200021FF230A46CDE9010960
:10404000009104F10C01284600F020FB064600BF59
:1040500000E000BF00BF284602F0FAF94CE728460E
:1040600002F0F6F948E7284602F0F2F900BF43E70C
:104070002E2E5C7372635C4C7749505C7372635C88
:10408000636F72655C697076345C69636D702E6312
:104090000000000069636D705F696E7075743A208E
:1040A0006D6F76696E6720702D3E7061796C6F61FF
:1040B0006420746F20697020686561646572206691
:1040C00061696C65640A0000417373657274696F9D
:1040D0006E2022257322206661696C6564206174FC
:1040E000206C696E6520256420696E2025730A00A6
:1040F000636865636B2074686174206669727374A9
:1041000020706275662063616E20686F6C64207336
:104110007472756374207468652049434D5020683B
:10412000656164657200000069636D705F696E703F
:1041300075743A20636F7079696E6720746F206EB2
:1041400065772070627566206661696C65640A0037
:1041500069636D705F696E7075743A20726573740F
:104160006F72696E67206F726967696E616C20702B
:104170002D3E7061796C6F6164206661696C656465
:104180000A00000043616E2774206D6F7665206F12
:104190007665722068656164657220696E20706161
:1041A000636B6574000000002DE9FC4706460F466E
:1041B000904600222421012001F0E2FC05460DB9C1
:1041C000BDE8FC8700BF6889242808D200BF17A378
:1041D0004FF49A721EA129A0FEF75EFE00BF00BF39
:1041E000D6F804906C68277084F801800020A080C5
:1041F000E08071686A6802F108001C22FCF716F87A
:10420000002060806989204600F055F86080012018
:104210000021FF2309F10C02CDE90010284600F02F
:104220001BFA284602F014F900BFC9E72E2E5C7372
:1042300072635C4C7749505C7372635C636F726548
:104240005C697076345C69636D702E6300000000F9
:10425000636865636B207468617420666972737447
:1042600020706275662063616E20686F6C642069DF
:10427000636D70206D65737361676500417373656D
:104280007274696F6E2022257322206661696C65E5
:1042900064206174206C696E6520256420696E203D
:1042A00025730A0070B505460C4622460B212846A8
:1042B000FFF77AFF70BD70B504460D4629462046CB
:1042C00000F05EFFC04380B270BD2DE9F0410646AC
:1042D00000240027354617E06989686800F050FF20
:1042E0000444A0B200EB1444688900EBD07149107B
:1042F000B0EB410107D0C7F10100C7B2E0B2C4F38F
:10430000072141EA00242D68002DE5D127B1E0B254
:10431000C4F3072141EA0024E04380B2BDE8F08104
:1043200030B503461A68D04300D00AB9012030BD29
:1043300091F82A0010F0020F01D10020F7E7486839
:10434000904201D10020F2E718688C682040D1E942
:1043500001452C40A04208D1886822EA00008D68FF
:10436000EC43A04201D10120E1E70020DFE700009B
:104370002DE9F74F86B08846B8F82800059014203C
:10438000019002220021104601F0FAFB054625B9F2
:104390004FF0FF3009B0BDE8F08F059868812881A3
:1043A000454820F0030068606C6806981422416854
:1043B0002046FBF73BFFE08801F0DCFB0746C7F334
:1043C0000C00049007F400500390069800891438FC
:1043D00086B20599A1F11400C11700EB5171C1F328
:1043E000CF0B61E005981438B04201DB012000E0FA
:1043F000002002900498C0F30C00039940EA0107E2
:10440000029808B947F40057029808B1304601E015
:104410004FEACB001FFA80FA524604F11401019BC7
:10442000069801F075FF0199084480B20190384662
:10443000FFF71FFDE0800AF1140188B2FFF719FDB4
:1044400060800020608114212046FFF734FF6081E6
:10445000029828B106F1140081B2284602F03AF918
:1044600000221146022001F08BFB8146B9F1000FBA
:104470000DD02946484601F02BFED8F814304946A5
:104480004046089A9847484601F0E2FF05E0284672
:1044900001F0DEFF4FF0FF307CE7A6EB0A0086B2AA
:1044A0000498584480B20490002E9BD1284601F015
:1044B000CFFF00206EE7000043E300202DE9F04726
:1044C00006460F467468208801F054FB0421B1EBC6
:1044D000203F05D0304601F0BBFF0020BDE8F0874B
:1044E000208801F047FBC0F303294FF6FF7000EA74
:1044F0008909608801F03EFB80467089484502DBEF
:104500003089404504DA304601F0A2FF0020E5E79B
:104510004146304602F0DEF84FF0010A3D4600BF4A
:10452000284601F0A3FA70B1281D0CD0686850B17C
:1045300020696968884205D0294604F11000FFF718
:10454000EFFE00B10DE0BAF1000F04D04FF0000A09
:104550003E48056800E02D68BD4200D12D68002D61
:10456000DED100BF394604F10C00FFF7D9FE60B977
:104570004FF0704001F0F8FAE16800EA010A4FF0EC
:10458000604001F0F1FA824504D1304601F060FF4D
:104590000020A3E725B9304601F05AFF00209DE72F
:1045A00043F6FF70FFF765FCE188084207D030460C
:1045B00000F030F906460EB900208FE774682448F1
:1045C0000760244804603946304602F039FAA8BB37
:1045D000208901F0CFFAC0B201280DD0062806D0FC
:1045E00011280ED13946304605F0D6FF25E0394670
:1045F000304603F0F3FA20E039463046FFF748FC36
:104600001BE0394604F11000FFF78AFE88B94FF02D
:10461000704001F0A9FA216900EA010A4FF06040F8
:1046200001F0A2FA824504D0746002213046FFF7FF
:1046300026FC304601F00CFF00BF00BF00200449FB
:1046400008600449086000BF48E70000BC00002083
:1046500014010020180100202DE9FE4F05460E46EA
:1046600014461F46DDE90C89204600F0B3FC5FEAE2
:10467000000A02D1001FBDE8FE8F3B4622463146AC
:1046800028468DE8000700F001F8F4E72DE9F05F17
:1046900005460F4690469A460C9EB8F1000F66D02C
:1046A0004FF014091421284601F074FF18B16FF07F
:1046B0000100BDE8F09F6C6800BF6889142808D22B
:1046C00000BF35A34FF410723BA147A0FEF7E4FBF7
:1046D00000BF00BF208901F04DFA6AF31F20834616
:1046E000FFF7C7FB2081208901F044FA01120B98E3
:1046F00040EA012B5846FFF7BCFB2081B8F1000FC0
:1047000001D1002001E0D8F800002061CB464FEA3B
:10471000E97109EB917189104FF4804242EA01215D
:104720000A9A114388B2FFF7A4FB20802889FFF77B
:10473000A0FB60800020E08035480088FFF799FBEF
:10474000A08033480088401C314908800FB1386888
:1047500028B9301D00D100E07068E06004E00FB9B6
:10476000002000E03868E0600020608102E06C68B2
:1047700004F11008308D48B12889318D884205DD5B
:10478000424631462846FFF7F3FD92E74246294666
:104790003046736998478CE72E2E5C7372635C4CCD
:1047A0007749505C7372635C636F72655C697076A5
:1047B000345C69702E630000636865636B20746805
:1047C000617420666972737420706275662063611B
:1047D0006E20686F6C6420737472756374206970E6
:1047E0005F68647200000000417373657274696FE2
:1047F0006E2022257322206661696C6564206174D5
:10480000206C696E6520256420696E2025730A007E
:10481000100100202DE9FC5F804600200090D8F8B0
:104820000450288801F0A6F9C0F303201421B1EB4D
:10483000800F00D0B1E0E88801F09CF9C0F30C00D3
:104840004FF6FF7101EAC00A688801F093F98346C8
:10485000288801F08FF9C0F30320ABEB800080B211
:104860000190404601F03FFC06464E4801888819F9
:104870000A280ADD3146284600F046FB20B14948A7
:10488000008830440A2800DD87E04748046812E0C9
:104890006069E968884209D1A0692969884205D11F
:1048A000A089A988884201D1012000E0002000B140
:1048B00003E000942468002CEAD100BF34B93146EB
:1048C000284600F04BFA044694B966E0E88801F007
:1048D00051F9C004C00C0BD1E08901F04BF9C004C0
:1048E000C00C05D01422294604F10800FBF79EFCF9
:1048F0002C48008830442B490880E88801F03AF9B8
:1049000010F4005F06D1A07F40F00100A07701986D
:104910005044A0834146204600F048F8D0B3A08B15
:104920001430A08360684068076860684568142296
:1049300004F108012846FBF779FCA08BFFF799FAF0
:1049400068800020E880688114212846FFF7B3FCC6
:104950006881D4F804800CE0D7F804906FF013015C
:10496000384601F017FE3946404601F013FBD9F8EE
:104970000070002FF0D12046009900F09BF94046CE
:1049800001F0B1FB07490988081A0649088040462A
:10499000BDE8FC9FFFE70020FAE7404601F058FD24
:1049A0000020F5E7200100201C0100202DE9FE4F2A
:1049B00006460F46002501200090D7F804A0BAF85B
:1049C000020001F0D7F88346BAF8000001F0D2F8EF
:1049D000C0F30320ABEB800080B20190BAF8060070
:1049E00001F0C8F8C0F30C004FF6FF7101EAC000F7
:1049F000029000BF00BF7C68002020600298A08069
:104A0000DDE901100844E080D6F804902EE0D9F8E2
:104A10000480A088B8F80410884210DAC4F8009026
:104A20005DB1A088E988884204DBE088B8F804100A
:104A3000884200DDAAE02F6000E0776019E0A088DE
:104A4000B8F80410884200D1A0E0A088B8F8061099
:104A5000884200DA9AE035B1E888B8F80410884254
:104A600001D000200090D8F800904546B9F1000F21
:104A7000CDD100BFB9F1000F26D1002D16D000BF57
:104A8000E888A188884208DD00BF47A34FF4C672BA
:104A90004EA156A0FEF700FA00BF00BF2F60E888C5
:104AA000A188884210D0002000900DE000BF7068FF
:104AB00040B100BF3CA34FF4CA7256A14BA0FEF711
:104AC000EBF900BF00BF7760B07F10F0010F5BD043
:104AD0000098002855D070684068808810B1002088
:104AE00000904EE02546D4F800900BE0D9F8044041
:104AF000E888A188884202D00020009005E0254681
:104B0000D4F80090B9F1000FF0D100BF0098002850
:104B100037D000BF706840B900BF23A340F2B51280
:104B20004AA132A0FEF7B8F900BF00BF00BF70680D
:104B30004068A04208D100BF1BA34FF4DB7243A121
:104B40002AA0FEF7A9F900BF00BF00BF206840B14E
:104B500000BF15A34FF4DC7240A124A0FEF79CF91E
:104B600000BF00BF00BFE088B18B884208D000BF03
:104B70000DA34FF4DD7242A11CA0FEF78DF900BF1A
:104B800000BF0098BDE8FE8F0020FBE7384601F02B
:104B9000AAFA47490988081A45490880384601F0A9
:104BA00057FC0020EEE700002E2E5C7372635C4C15
:104BB0007749505C7372635C636F72655C69707691
:104BC000345C69705F667261672E63006368656359
:104BD0006B20667261676D656E747320646F6E27FB
:104BE00074206F7665726C617000000041737365AC
:104BF0007274696F6E2022257322206661696C656C
:104C000064206174206C696E6520256420696E20C3
:104C100025730A006E6F2070726576696F75732058
:104C2000667261676D656E742C2074686973206D9F
:104C30007573742062652074686520666972737488
:104C400020667261676D656E7421000073616E6924
:104C5000747920636865636B0000000076616C699D
:104C6000646174655F646174616772616D3A6E65F9
:104C700078745F70627566213D4E554C4C000000A3
:104C800076616C69646174655F64617461677261A7
:104C90006D3A646174616772616D20656E64213D77
:104CA000646174616772616D206C656E0000000064
:104CB0002001002070B504460D460D480068A04252
:104CC00003D10B49206808600DE000BF45B900BF63
:104CD00008A34FF4997210A116A0FEF7DDF800BFEB
:104CE00000BF206828602146052000F095FD70BDBA
:104CF0001C0100202E2E5C7372635C4C7749505C63
:104D00007372635C636F72655C697076345C697042
:104D10005F667261672E630073616E6974792063E8
:104D20006865636B206C696E6B6564206C69737475
:104D300000000000417373657274696F6E20222554
:104D40007322206661696C6564206174206C696EF1
:104D50006520256420696E2025730A0070B505461C
:104D60000E46052000F0DCFD044664B931462846B5
:104D700000F0CAF8B04203DB052000F0D1FD044684
:104D80000CB9002070BD20212046FBF768FA0320F3
:104D9000E077064800682060044804601422294631
:104DA00004F10800FBF742FA2046EBE71C01002063
:104DB0002DE9F04704460F46002600BFA74207D161
:104DC00000BF2EA3A22236A138A0FEF765F800BFCF
:104DD00000BF002F0CD000BF3868A04207D000BF32
:104DE00026A3A4223BA131A0FEF756F800BF00BFC6
:104DF0006068D0F80480B8F80400A0B96568D8F8F5
:104E000000006060142204F108016868FBF70EFAE4
:104E100001212846FFF746FA284601F064F90644C6
:104E2000284601F015FB65680CE0D5F80480A9461A
:104E3000D8F80050484601F056F90644484601F0BB
:104E400007FB00BF002DF0D139462046FFF732FFA7
:104E500000BF25480088B04207DA00BF07A3C5227B
:104E600022A112A0FEF718F800BF00BF1E4800885C
:104E7000801B1D4908803046BDE8F0872E2E5C73EC
:104E800072635C4C7749505C7372635C636F7265EC
:104E90005C697076345C69705F667261672E63006E
:104EA0007072657620213D206970720041737365D0
:104EB0007274696F6E2022257322206661696C65A9
:104EC00064206174206C696E6520256420696E2001
:104ED00025730A00707265762D3E6E657874203DEC
:104EE0003D206970720000002001002069705F722F
:104EF000656173735F70627566636F756E74203E73
:104F00003D20636C656E00002DE9F05F0546894623
:104F1000002700BF0026B346B246194804681DE0CA
:104F20006069E968884207D1A0692969884203D18C
:104F3000A089A988884201D0012000E0002048B162
:104F40000AF1010A0EB9264604E0E07FF17F8842AB
:104F500000DC2646206800B1A3462468002CDFD17F
:104F60002EB159463046FFF723FF804647444F4550
:104F700002DABAF1010FCDDC3846BDE8F09F00003F
:104F80001C01002010B5044600F00AF80022034975
:104F90004FF47A7002F06AF810BD0000854F0008E7
:104FA00070B500250A4804680FE0E07F002805DDA1
:104FB000E07F401EE0772546246806E02646246808
:104FC00029463046FFF7F4FE00BF002CEDD170BD3E
:104FD0001C01002070B50546104804680EE020460C
:104FE00000F044FD48B12868A1680840D4E90112E6
:104FF0001140884201D1204670BD2468002CEED1BA
:105000000748006820B10648006800F02FFD08B985
:105010000020F1E702480068EEE70000BC00002035
:10502000C000002070B50446062084F82000214806
:10503000007884F821001F484178222001551D483E
:105040008178232001551B48C17824200155194837
:10505000017925200155174841792620015540F254
:10506000DC502085322084F82A000222124913489D
:10507000FBF732FB042212491248FBF7E5FA002540
:1050800006E0104901EB05100121FBF707FB6D1C41
:10509000042DF6DB002507E0084901EB05104FF46D
:1050A0004001FBF741FB6D1C022DF5DBFBF796FD84
:1050B00070BD000088000020842D0020A415002071
:1050C000C4150020641500202DE9F04387B0814607
:1050D0000026002501A8FBF729FD01A807C804AB9D
:1050E00007C3049887B2DDF81480032239461046BE
:1050F00000F046FD054665B12C4608E0628908EBE4
:1051000006016068FBF792F8608906442468002C69
:10511000F4D14FF00040069908600748406910F04C
:10512000800F04D080200449486100208860284610
:1051300007B0BDE8F0830000009002402DE9F04187
:1051400080460E460025FBF70FFB0746344607E076
:10515000628978196168FBF769F8608905442468F9
:10516000002CF5D1A8B2FBF79BFD0020BDE8F08133
:1051700010B501F06DFD00F0EDF800F09FFB10BDE3
:105180002DE9F04180460E460024454608E0287887
:1051900007026D1C287807436D1C3C44B01E86B284
:1051A000012EF4DC002E02DD287807023C44A0B278
:1051B00000EB1444200C000402D0A0B200EB144415
:1051C000A0B2FEF756FEBDE8F081000000B585B044
:1051D000FCF756F8032000218022084BCDE903108C
:1051E000CDE9013200900346054A0648FCF740FC31
:1051F000FCF7C2FB002005B000BD00002801002024
:10520000240300201103000870B5044604B970BDE2
:1052100000BF14F0030F08D000BF25A34FF499720C
:105220002AA133A0FDF738FE00BF00BF00BF3A48F7
:105230000068844203D339480068844208D300BF21
:105240001BA34FF49A7236A129A0FDF725FE00BFDB
:1052500000BF31480068844203D33048006884426C
:1052600000D3D4E700213448006801F09BFCA4F18E
:10527000080500BF287940B900BF0DA340F24512D0
:105280002EA11BA0FDF708FE00BF00BF0020287163
:105290002F480068854201D22D480560284601F05C
:1052A000FBFA2548006801F05FFE00BFAFE7000091
:1052B0002E2E5C7372635C4C7749505C7372635C36
:1052C000636F72655C6D656D2E6300006D656D5F6B
:1052D000667265653A2073616E69747920636865EA
:1052E000636B20616C69676E6D656E740000000011
:1052F000417373657274696F6E2022257322206674
:1053000061696C6564206174206C696E6520256438
:1053100020696E2025730A00A8000020AC00002040
:105320006D656D5F667265653A206C6567616C20BE
:105330006D656D6F72790000B40000206D656D5F62
:10534000667265653A206D656D2D3E757365640006
:10535000B000002010B500BF00BF144820F00300CB
:1053600013490860084604684FF4A04020800020DC
:10537000608020710846006800F5A0400D49086073
:105380000120096808714FF4A0400A4909680880A3
:10539000084909684880012001F0A8FD0649086015
:1053A000034800680549086010BD0000CF4A00208E
:1053B000A8000020AC000020B4000020B0000020B5
:1053C0002DE9F041054615B90020BDE8F081E81C43
:1053D00020F0030085B20C2D00DA0C25B5F5A04FA6
:1053E00001DD0020F1E700215748006801F0DAFBF9
:1053F0005648008856490988401A86B298E05448B1
:1054000000688419207900287ED1218806F10800DF
:10541000081AA84278D3218806F10800091A05F174
:10542000140081421CD306F1080028441FFA80F8BA
:105430004748006800EB0807002038712088388052
:105440007E80A4F80080012020713888B0F5A04F3C
:1054500008D038883E4909680844A0F8028001E075
:105460000120207139480068844227D107E037487D
:1054700000680088364909680844344908603348A0
:105480000068007928B131480068324909688842CB
:10549000EDD100BF2D4800682E49096888420CD024
:1054A0002A480068007940B100BF2BA34FF4127264
:1054B00030A137A0FDF7F0FC00BF00BF2248006814
:1054C00001F052FD00BF04F1080028442149096899
:1054D000884208D900BF20A34FF4137236A12CA034
:1054E000FDF7DAFC00BF00BF00BF14F0030F08D0C7
:1054F00000BF19A340F24E223BA125A0FDF7CCFC32
:1055000000BF00BF00BF00E00FE014F0030F08D0A1
:1055100000BF11A34FF414723FA11DA0FDF7BCFC06
:1055200000BF00BF04F108004FE709480068865B30
:10553000C5F5A040B0423FF762AF0348006801F0F4
:1055400013FD002041E70000B4000020B00000205F
:10555000A8000020AC0000202E2E5C7372635C4C0F
:105560007749505C7372635C636F72655C6D656DE7
:105570002E6300006D656D5F6D616C6C6F633A202A
:10558000216C667265652D3E7573656400000000D0
:10559000417373657274696F6E20222573222066D1
:1055A00061696C6564206174206C696E6520256496
:1055B00020696E2025730A006D656D5F6D616C6CEE
:1055C0006F633A20616C6C6F6361746564206D6514
:1055D0006D6F7279206E6F742061626F76652072D4
:1055E000616D5F656E642E006D656D5F6D616C6CE5
:1055F0006F633A20616C6C6F6361746564206D65E4
:105600006D6F72792070726F7065726C7920616C49
:1056100069676E65642E00006D656D5F6D616C6C11
:105620006F633A2073616E69747920636865636B98
:1056300020616C69676E6D656E7400002DE9F0473E
:1056400080460D46E81C20F0030085B20C2D00DAE0
:105650000C25B5F5A04F02DD0020BDE8F08700BFA6
:1056600048480068804503D347480068804508D310
:1056700000BF46A34FF4BD724BA152A0FDF70CFC36
:1056800000BF00BF3F480068804503D33E48006824
:10569000804501D34046E0E7A8F108073948008873
:1056A000381A1FFA80F93888A0EB090008381FFA69
:1056B00080FA00BF554508DD00BF34A34FF4C67221
:1056C0004AA140A0FDF7E8FB00BF00BF554501DD42
:1056D0000020C2E7554501D14046BEE700214C48B5
:1056E000006801F05FFA3888264909684418207973
:1056F00000BB208809F1080129448EB24549096898
:10570000A14204D11F4909683144424A11601D4930
:1057100009688C19002121712080A4F802903E8034
:105720002188B1F5A04F04D02188164A126811448F
:105730004E8020E005F1140050451CD809F1080006
:10574000284486B20F4800688419324800688442B1
:1057500001D2304804600020207138882080A4F8ED
:1057600002903E802088B0F5A04F04D020880549E3
:105770000968084446802648006801F0F5FB404669
:105780006BE70000A8000020AC0000202E2E5C7308
:1057900072635C4C7749505C7372635C636F7265D3
:1057A0005C6D656D2E6300006D656D5F7265616C8B
:1057B0006C6F633A206C6567616C206D656D6F720C
:1057C00079000000417373657274696F6E20222541
:1057D0007322206661696C6564206174206C696E57
:1057E0006520256420696E2025730A006D656D5F54
:1057F0007265616C6C6F632063616E206F6E6C7993
:1058000020736872696E6B206D656D6F7279000030
:10581000B4000020B000002070B505460C4604B965
:1058200070BD00BF14F0030F08D000BF09A34FF4F0
:10583000B4720FA116A0FDF72FFB00BF00BF2646D4
:105840001D4850F8250030601B4840F8256000BF17
:10585000E6E700002E2E5C7372635C4C7749505C67
:105860007372635C636F72655C6D656D702E63004F
:105870006D656D705F667265653A206D656D20704F
:10588000726F7065726C7920616C69676E65640017
:10589000417373657274696F6E20222573222066CE
:1058A00061696C6564206174206C696E6520256493
:1058B00020696E2025730A00E09A002010B50020B0
:1058C00001E0431C98B20C28FBDB114B23F00301D1
:1058D000002019E000230F4C44F8203000220CE097
:1058E0000C4B53F820300B600A4B43F820100A4B46
:1058F00033F810301944531C9AB2084B33F8103067
:105900009342EDDC431C98B20C28E3DB10BD000091
:10591000139B0020E09A002098AA0008B0AA000873
:1059200070B5054600BF0C2D0ADB00BF12A340F284
:105930003B1218A11FA0FDF7AFFA00BF002070BDF9
:1059400000BF264850F82540002C12D0234920687B
:1059500041F8250000BF14F0030F08D000BF06A3D4
:105960004FF4A6721EA113A0FDF796FA00BF00BF68
:1059700000BF2046E3E700002E2E5C7372635C4C90
:105980007749505C7372635C636F72655C6D656DC3
:10599000702E63006D656D705F6D616C6C6F633A46
:1059A0002074797065203C204D454D505F4D415825
:1059B00000000000417373657274696F6E202225C8
:1059C0007322206661696C6564206174206C696E65
:1059D0006520256420696E2025730A00E09A002066
:1059E0006D656D705F6D616C6C6F633A206D656D98
:1059F000702070726F7065726C7920616C69676E6F
:105A0000656400002DE9F04704460D4616461F4622
:105A1000DDE909A9DDF8208000206060A060E06079
:105A200084F82A00C4F81C800E48007884F82D0001
:105A30000C480078401C0B490870C4F810903B4695
:105A400032462946204600F017F82046D04710B1CC
:105A50000020BDE8F0870448006820600248046028
:105A60002046F6E7B8000020BC000020014691F86F
:105A70002A0000F0010070472DE9F04106460F466C
:105A800014461D463946304600F016F82146304689
:105A900000F04EF82946304600F008F8BDE8F081E5
:105AA0000149086070470000C000002009B90022C9
:105AB00000E00A68C26070472DE9F04107460D46D4
:105AC00028687968884201D1012000E0002018BBD5
:105AD000154806680CE030687968884207D1D6F826
